{
  "contractName": "AngelToken",
  "abi": [
    {
      "inputs": [],
      "stateMutability": "nonpayable",
      "type": "constructor"
    },
    {
      "anonymous": false,
      "inputs": [
        {
          "indexed": true,
          "internalType": "address",
          "name": "account",
          "type": "address"
        },
        {
          "indexed": true,
          "internalType": "address",
          "name": "operator",
          "type": "address"
        },
        {
          "indexed": false,
          "internalType": "bool",
          "name": "approved",
          "type": "bool"
        }
      ],
      "name": "ApprovalForAll",
      "type": "event"
    },
    {
      "anonymous": false,
      "inputs": [
        {
          "indexed": false,
          "internalType": "address",
          "name": "owner",
          "type": "address"
        },
        {
          "indexed": false,
          "internalType": "bytes",
          "name": "_uri",
          "type": "bytes"
        },
        {
          "indexed": false,
          "internalType": "string",
          "name": "_ename",
          "type": "string"
        },
        {
          "indexed": false,
          "internalType": "string",
          "name": "_esym",
          "type": "string"
        },
        {
          "indexed": false,
          "internalType": "uint256",
          "name": "_id",
          "type": "uint256"
        },
        {
          "indexed": false,
          "internalType": "bytes",
          "name": "mint_data",
          "type": "bytes"
        }
      ],
      "name": "ManifestedAngelToken",
      "type": "event"
    },
    {
      "anonymous": false,
      "inputs": [
        {
          "indexed": true,
          "internalType": "address",
          "name": "previousOwner",
          "type": "address"
        },
        {
          "indexed": true,
          "internalType": "address",
          "name": "newOwner",
          "type": "address"
        }
      ],
      "name": "OwnershipTransferred",
      "type": "event"
    },
    {
      "anonymous": false,
      "inputs": [
        {
          "indexed": true,
          "internalType": "address",
          "name": "operator",
          "type": "address"
        },
        {
          "indexed": true,
          "internalType": "address",
          "name": "from",
          "type": "address"
        },
        {
          "indexed": true,
          "internalType": "address",
          "name": "to",
          "type": "address"
        },
        {
          "indexed": false,
          "internalType": "uint256[]",
          "name": "ids",
          "type": "uint256[]"
        },
        {
          "indexed": false,
          "internalType": "uint256[]",
          "name": "values",
          "type": "uint256[]"
        }
      ],
      "name": "TransferBatch",
      "type": "event"
    },
    {
      "anonymous": false,
      "inputs": [
        {
          "indexed": true,
          "internalType": "address",
          "name": "operator",
          "type": "address"
        },
        {
          "indexed": true,
          "internalType": "address",
          "name": "from",
          "type": "address"
        },
        {
          "indexed": true,
          "internalType": "address",
          "name": "to",
          "type": "address"
        },
        {
          "indexed": false,
          "internalType": "uint256",
          "name": "id",
          "type": "uint256"
        },
        {
          "indexed": false,
          "internalType": "uint256",
          "name": "value",
          "type": "uint256"
        }
      ],
      "name": "TransferSingle",
      "type": "event"
    },
    {
      "anonymous": false,
      "inputs": [
        {
          "indexed": false,
          "internalType": "string",
          "name": "value",
          "type": "string"
        },
        {
          "indexed": true,
          "internalType": "uint256",
          "name": "id",
          "type": "uint256"
        }
      ],
      "name": "URI",
      "type": "event"
    },
    {
      "inputs": [
        {
          "internalType": "uint256",
          "name": "",
          "type": "uint256"
        }
      ],
      "name": "Angel_List",
      "outputs": [
        {
          "internalType": "address payable",
          "name": "",
          "type": "address"
        }
      ],
      "stateMutability": "view",
      "type": "function",
      "constant": true
    },
    {
      "inputs": [
        {
          "internalType": "uint256",
          "name": "",
          "type": "uint256"
        },
        {
          "internalType": "address",
          "name": "",
          "type": "address"
        }
      ],
      "name": "Angel_Map",
      "outputs": [
        {
          "internalType": "uint256",
          "name": "",
          "type": "uint256"
        }
      ],
      "stateMutability": "view",
      "type": "function",
      "constant": true
    },
    {
      "inputs": [],
      "name": "OA",
      "outputs": [
        {
          "internalType": "address payable",
          "name": "",
          "type": "address"
        }
      ],
      "stateMutability": "view",
      "type": "function",
      "constant": true
    },
    {
      "inputs": [
        {
          "internalType": "uint256",
          "name": "",
          "type": "uint256"
        }
      ],
      "name": "alms",
      "outputs": [
        {
          "internalType": "address payable",
          "name": "owner",
          "type": "address"
        },
        {
          "internalType": "bytes",
          "name": "uri",
          "type": "bytes"
        },
        {
          "internalType": "string",
          "name": "name",
          "type": "string"
        },
        {
          "internalType": "string",
          "name": "sym",
          "type": "string"
        },
        {
          "internalType": "uint256",
          "name": "id",
          "type": "uint256"
        },
        {
          "internalType": "bytes",
          "name": "mint_data",
          "type": "bytes"
        }
      ],
      "stateMutability": "view",
      "type": "function",
      "constant": true
    },
    {
      "inputs": [
        {
          "internalType": "address",
          "name": "account",
          "type": "address"
        },
        {
          "internalType": "uint256",
          "name": "id",
          "type": "uint256"
        }
      ],
      "name": "balanceOf",
      "outputs": [
        {
          "internalType": "uint256",
          "name": "",
          "type": "uint256"
        }
      ],
      "stateMutability": "view",
      "type": "function",
      "constant": true
    },
    {
      "inputs": [
        {
          "internalType": "address[]",
          "name": "accounts",
          "type": "address[]"
        },
        {
          "internalType": "uint256[]",
          "name": "ids",
          "type": "uint256[]"
        }
      ],
      "name": "balanceOfBatch",
      "outputs": [
        {
          "internalType": "uint256[]",
          "name": "",
          "type": "uint256[]"
        }
      ],
      "stateMutability": "view",
      "type": "function",
      "constant": true
    },
    {
      "inputs": [
        {
          "internalType": "address",
          "name": "account",
          "type": "address"
        },
        {
          "internalType": "address",
          "name": "operator",
          "type": "address"
        }
      ],
      "name": "isApprovedForAll",
      "outputs": [
        {
          "internalType": "bool",
          "name": "",
          "type": "bool"
        }
      ],
      "stateMutability": "view",
      "type": "function",
      "constant": true
    },
    {
      "inputs": [
        {
          "internalType": "uint256",
          "name": "",
          "type": "uint256"
        }
      ],
      "name": "is_on_manifest",
      "outputs": [
        {
          "internalType": "bool",
          "name": "",
          "type": "bool"
        }
      ],
      "stateMutability": "view",
      "type": "function",
      "constant": true
    },
    {
      "inputs": [
        {
          "internalType": "uint256",
          "name": "",
          "type": "uint256"
        }
      ],
      "name": "map_id_to_Alm",
      "outputs": [
        {
          "internalType": "address payable",
          "name": "owner",
          "type": "address"
        },
        {
          "internalType": "bytes",
          "name": "uri",
          "type": "bytes"
        },
        {
          "internalType": "string",
          "name": "name",
          "type": "string"
        },
        {
          "internalType": "string",
          "name": "sym",
          "type": "string"
        },
        {
          "internalType": "uint256",
          "name": "id",
          "type": "uint256"
        },
        {
          "internalType": "bytes",
          "name": "mint_data",
          "type": "bytes"
        }
      ],
      "stateMutability": "view",
      "type": "function",
      "constant": true
    },
    {
      "inputs": [
        {
          "internalType": "address",
          "name": "",
          "type": "address"
        }
      ],
      "name": "map_owner_to_id",
      "outputs": [
        {
          "internalType": "uint256",
          "name": "",
          "type": "uint256"
        }
      ],
      "stateMutability": "view",
      "type": "function",
      "constant": true
    },
    {
      "inputs": [],
      "name": "owner",
      "outputs": [
        {
          "internalType": "address",
          "name": "",
          "type": "address"
        }
      ],
      "stateMutability": "view",
      "type": "function",
      "constant": true
    },
    {
      "inputs": [],
      "name": "renounceOwnership",
      "outputs": [],
      "stateMutability": "nonpayable",
      "type": "function"
    },
    {
      "inputs": [
        {
          "internalType": "address",
          "name": "from",
          "type": "address"
        },
        {
          "internalType": "address",
          "name": "to",
          "type": "address"
        },
        {
          "internalType": "uint256[]",
          "name": "ids",
          "type": "uint256[]"
        },
        {
          "internalType": "uint256[]",
          "name": "amounts",
          "type": "uint256[]"
        },
        {
          "internalType": "bytes",
          "name": "data",
          "type": "bytes"
        }
      ],
      "name": "safeBatchTransferFrom",
      "outputs": [],
      "stateMutability": "nonpayable",
      "type": "function"
    },
    {
      "inputs": [
        {
          "internalType": "address",
          "name": "from",
          "type": "address"
        },
        {
          "internalType": "address",
          "name": "to",
          "type": "address"
        },
        {
          "internalType": "uint256",
          "name": "id",
          "type": "uint256"
        },
        {
          "internalType": "uint256",
          "name": "amount",
          "type": "uint256"
        },
        {
          "internalType": "bytes",
          "name": "data",
          "type": "bytes"
        }
      ],
      "name": "safeTransferFrom",
      "outputs": [],
      "stateMutability": "nonpayable",
      "type": "function"
    },
    {
      "inputs": [
        {
          "internalType": "address",
          "name": "operator",
          "type": "address"
        },
        {
          "internalType": "bool",
          "name": "approved",
          "type": "bool"
        }
      ],
      "name": "setApprovalForAll",
      "outputs": [],
      "stateMutability": "nonpayable",
      "type": "function"
    },
    {
      "inputs": [
        {
          "internalType": "bytes4",
          "name": "interfaceId",
          "type": "bytes4"
        }
      ],
      "name": "supportsInterface",
      "outputs": [
        {
          "internalType": "bool",
          "name": "",
          "type": "bool"
        }
      ],
      "stateMutability": "view",
      "type": "function",
      "constant": true
    },
    {
      "inputs": [
        {
          "internalType": "address",
          "name": "newOwner",
          "type": "address"
        }
      ],
      "name": "transferOwnership",
      "outputs": [],
      "stateMutability": "nonpayable",
      "type": "function"
    },
    {
      "inputs": [
        {
          "internalType": "uint256",
          "name": "",
          "type": "uint256"
        }
      ],
      "name": "uri",
      "outputs": [
        {
          "internalType": "string",
          "name": "",
          "type": "string"
        }
      ],
      "stateMutability": "view",
      "type": "function",
      "constant": true
    },
    {
      "inputs": [
        {
          "internalType": "string",
          "name": "_ename",
          "type": "string"
        },
        {
          "internalType": "string",
          "name": "_esym",
          "type": "string"
        },
        {
          "internalType": "uint256",
          "name": "_num_to_issue",
          "type": "uint256"
        },
        {
          "internalType": "string",
          "name": "_mint_date",
          "type": "string"
        },
        {
          "internalType": "uint256",
          "name": "_cost",
          "type": "uint256"
        },
        {
          "internalType": "uint256",
          "name": "_angel_coefficient",
          "type": "uint256"
        },
        {
          "internalType": "string",
          "name": "_product",
          "type": "string"
        }
      ],
      "name": "tokenGenesis",
      "outputs": [],
      "stateMutability": "payable",
      "type": "function",
      "payable": true
    },
    {
      "inputs": [],
      "name": "getAlmsLength",
      "outputs": [
        {
          "internalType": "uint256",
          "name": "",
          "type": "uint256"
        }
      ],
      "stateMutability": "view",
      "type": "function",
      "constant": true
    },
    {
      "inputs": [
        {
          "internalType": "address payable",
          "name": "_owner",
          "type": "address"
        },
        {
          "internalType": "uint256",
          "name": "_id",
          "type": "uint256"
        },
        {
          "internalType": "uint256",
          "name": "_amount",
          "type": "uint256"
        },
        {
          "internalType": "uint256",
          "name": "_cost",
          "type": "uint256"
        },
        {
          "internalType": "bytes",
          "name": "_data",
          "type": "bytes"
        }
      ],
      "name": "buyAlms",
      "outputs": [
        {
          "internalType": "address",
          "name": "",
          "type": "address"
        }
      ],
      "stateMutability": "payable",
      "type": "function",
      "payable": true
    }
  ],
  "bytecode": "0x608060405233600860006101000a81548173ffffffffffffffffffffffffffffffffffffffff021916908373ffffffffffffffffffffffffffffffffffffffff1602179055503480156200005257600080fd5b506040518060600160405280603881526020016200476460389139620000856301ffc9a760e01b6200017e60201b60201c565b62000096816200028760201b60201c565b620000ae63d9b67a2660e01b6200017e60201b60201c565b620000c6630e89341c60e01b6200017e60201b60201c565b506000620000d9620002a360201b60201c565b905080600460006101000a81548173ffffffffffffffffffffffffffffffffffffffff021916908373ffffffffffffffffffffffffffffffffffffffff1602179055508073ffffffffffffffffffffffffffffffffffffffff16600073ffffffffffffffffffffffffffffffffffffffff167f8be0079c531659141344cd1fd0a4f28419497f9722a3daafe3b4186f6b6457e060405160405180910390a35062000351565b63ffffffff60e01b817bffffffffffffffffffffffffffffffffffffffffffffffffffffffff191614156200021b576040517f08c379a000000000000000000000000000000000000000000000000000000000815260040180806020018281038252601c8152602001807f4552433136353a20696e76616c696420696e746572666163652069640000000081525060200191505060405180910390fd5b6001600080837bffffffffffffffffffffffffffffffffffffffffffffffffffffffff19167bffffffffffffffffffffffffffffffffffffffffffffffffffffffff1916815260200190815260200160002060006101000a81548160ff02191690831515021790555050565b80600390805190602001906200029f929190620002ab565b5050565b600033905090565b828054600181600116156101000203166002900490600052602060002090601f016020900481019282601f10620002ee57805160ff19168380011785556200031f565b828001600101855582156200031f579182015b828111156200031e57825182559160200191906001019062000301565b5b5090506200032e919062000332565b5090565b5b808211156200034d57600081600090555060010162000333565b5090565b61440380620003616000396000f3fe6080604052600436106101295760003560e01c8063715018a6116100ab578063a2fe5f6f1161006f578063a2fe5f6f14610cca578063caae5f9414610ee6578063d2a55e3314610f27578063e985e9c514611143578063f242432a146111ca578063f2fde38b146112e657610129565b8063715018a61461085457806376cdf2241461086b5780638da5cb5b14610b095780639a9dcd1e14610b4a578063a22cb46514610c6d57610129565b80634b8ae8cd116100f25780634b8ae8cd146105565780634e1273f4146105a7578063590743e51461075557806359204885146107ba5780635d91889a1461082957610129565b8062fdd58e1461012e57806301ffc9a71461019d5780630e89341c1461020d5780631e5be179146102c15780632eb2c2d614610326575b600080fd5b34801561013a57600080fd5b506101876004803603604081101561015157600080fd5b81019080803573ffffffffffffffffffffffffffffffffffffffff16906020019092919080359060200190929190505050611337565b6040518082815260200191505060405180910390f35b3480156101a957600080fd5b506101f5600480360360208110156101c057600080fd5b8101908080357bffffffffffffffffffffffffffffffffffffffffffffffffffffffff19169060200190929190505050611417565b60405180821515815260200191505060405180910390f35b34801561021957600080fd5b506102466004803603602081101561023057600080fd5b810190808035906020019092919050505061147e565b6040518080602001828103825283818151815260200191508051906020019080838360005b8381101561028657808201518184015260208101905061026b565b50505050905090810190601f1680156102b35780820380516001836020036101000a031916815260200191505b509250505060405180910390f35b3480156102cd57600080fd5b506102fa600480360360208110156102e457600080fd5b8101908080359060200190929190505050611522565b604051808273ffffffffffffffffffffffffffffffffffffffff16815260200191505060405180910390f35b34801561033257600080fd5b50610554600480360360a081101561034957600080fd5b81019080803573ffffffffffffffffffffffffffffffffffffffff169060200190929190803573ffffffffffffffffffffffffffffffffffffffff169060200190929190803590602001906401000000008111156103a657600080fd5b8201836020820111156103b857600080fd5b803590602001918460208302840111640100000000831117156103da57600080fd5b919080806020026020016040519081016040528093929190818152602001838360200280828437600081840152601f19601f8201169050808301925050505050505091929192908035906020019064010000000081111561043a57600080fd5b82018360208201111561044c57600080fd5b8035906020019184602083028401116401000000008311171561046e57600080fd5b919080806020026020016040519081016040528093929190818152602001838360200280828437600081840152601f19601f820116905080830192505050505050509192919290803590602001906401000000008111156104ce57600080fd5b8201836020820111156104e057600080fd5b8035906020019184600183028401116401000000008311171561050257600080fd5b91908080601f016020809104026020016040519081016040528093929190818152602001838380828437600081840152601f19601f82011690508083019250505050505050919291929050505061155e565b005b34801561056257600080fd5b5061058f6004803603602081101561057957600080fd5b81019080803590602001909291905050506119e9565b60405180821515815260200191505060405180910390f35b3480156105b357600080fd5b506106fe600480360360408110156105ca57600080fd5b81019080803590602001906401000000008111156105e757600080fd5b8201836020820111156105f957600080fd5b8035906020019184602083028401116401000000008311171561061b57600080fd5b919080806020026020016040519081016040528093929190818152602001838360200280828437600081840152601f19601f8201169050808301925050505050505091929192908035906020019064010000000081111561067b57600080fd5b82018360208201111561068d57600080fd5b803590602001918460208302840111640100000000831117156106af57600080fd5b919080806020026020016040519081016040528093929190818152602001838360200280828437600081840152601f19601f820116905080830192505050505050509192919290505050611a09565b6040518080602001828103825283818151815260200191508051906020019060200280838360005b83811015610741578082015181840152602081019050610726565b505050509050019250505060405180910390f35b34801561076157600080fd5b506107a46004803603602081101561077857600080fd5b81019080803573ffffffffffffffffffffffffffffffffffffffff169060200190929190505050611b1b565b6040518082815260200191505060405180910390f35b3480156107c657600080fd5b50610813600480360360408110156107dd57600080fd5b8101908080359060200190929190803573ffffffffffffffffffffffffffffffffffffffff169060200190929190505050611b33565b6040518082815260200191505060405180910390f35b34801561083557600080fd5b5061083e611b58565b6040518082815260200191505060405180910390f35b34801561086057600080fd5b50610869611b65565b005b610b07600480360360e081101561088157600080fd5b810190808035906020019064010000000081111561089e57600080fd5b8201836020820111156108b057600080fd5b803590602001918460018302840111640100000000831117156108d257600080fd5b91908080601f016020809104026020016040519081016040528093929190818152602001838380828437600081840152601f19601f8201169050808301925050505050505091929192908035906020019064010000000081111561093557600080fd5b82018360208201111561094757600080fd5b8035906020019184600183028401116401000000008311171561096957600080fd5b91908080601f016020809104026020016040519081016040528093929190818152602001838380828437600081840152601f19601f82011690508083019250505050505050919291929080359060200190929190803590602001906401000000008111156109d657600080fd5b8201836020820111156109e857600080fd5b80359060200191846001830284011164010000000083111715610a0a57600080fd5b91908080601f016020809104026020016040519081016040528093929190818152602001838380828437600081840152601f19601f820116905080830192505050505050509192919290803590602001909291908035906020019092919080359060200190640100000000811115610a8157600080fd5b820183602082011115610a9357600080fd5b80359060200191846001830284011164010000000083111715610ab557600080fd5b91908080601f016020809104026020016040519081016040528093929190818152602001838380828437600081840152601f19601f820116905080830192505050505050509192919290505050611cd5565b005b348015610b1557600080fd5b50610b1e612568565b604051808273ffffffffffffffffffffffffffffffffffffffff16815260200191505060405180910390f35b610c41600480360360a0811015610b6057600080fd5b81019080803573ffffffffffffffffffffffffffffffffffffffff16906020019092919080359060200190929190803590602001909291908035906020019092919080359060200190640100000000811115610bbb57600080fd5b820183602082011115610bcd57600080fd5b80359060200191846001830284011164010000000083111715610bef57600080fd5b91908080601f016020809104026020016040519081016040528093929190818152602001838380828437600081840152601f19601f820116905080830192505050505050509192919290505050612592565b604051808273ffffffffffffffffffffffffffffffffffffffff16815260200191505060405180910390f35b348015610c7957600080fd5b50610cc860048036036040811015610c9057600080fd5b81019080803573ffffffffffffffffffffffffffffffffffffffff169060200190929190803515159060200190929190505050612794565b005b348015610cd657600080fd5b50610d0360048036036020811015610ced57600080fd5b810190808035906020019092919050505061292d565b604051808773ffffffffffffffffffffffffffffffffffffffff1681526020018060200180602001806020018681526020018060200185810385528a818151815260200191508051906020019080838360005b83811015610d71578082015181840152602081019050610d56565b50505050905090810190601f168015610d9e5780820380516001836020036101000a031916815260200191505b50858103845289818151815260200191508051906020019080838360005b83811015610dd7578082015181840152602081019050610dbc565b50505050905090810190601f168015610e045780820380516001836020036101000a031916815260200191505b50858103835288818151815260200191508051906020019080838360005b83811015610e3d578082015181840152602081019050610e22565b50505050905090810190601f168015610e6a5780820380516001836020036101000a031916815260200191505b50858103825286818151815260200191508051906020019080838360005b83811015610ea3578082015181840152602081019050610e88565b50505050905090810190601f168015610ed05780820380516001836020036101000a031916815260200191505b509a505050505050505050505060405180910390f35b348015610ef257600080fd5b50610efb612be9565b604051808273ffffffffffffffffffffffffffffffffffffffff16815260200191505060405180910390f35b348015610f3357600080fd5b50610f6060048036036020811015610f4a57600080fd5b8101908080359060200190929190505050612c0f565b604051808773ffffffffffffffffffffffffffffffffffffffff1681526020018060200180602001806020018681526020018060200185810385528a818151815260200191508051906020019080838360005b83811015610fce578082015181840152602081019050610fb3565b50505050905090810190601f168015610ffb5780820380516001836020036101000a031916815260200191505b50858103845289818151815260200191508051906020019080838360005b83811015611034578082015181840152602081019050611019565b50505050905090810190601f1680156110615780820380516001836020036101000a031916815260200191505b50858103835288818151815260200191508051906020019080838360005b8381101561109a57808201518184015260208101905061107f565b50505050905090810190601f1680156110c75780820380516001836020036101000a031916815260200191505b50858103825286818151815260200191508051906020019080838360005b838110156111005780820151818401526020810190506110e5565b50505050905090810190601f16801561112d5780820380516001836020036101000a031916815260200191505b509a505050505050505050505060405180910390f35b34801561114f57600080fd5b506111b26004803603604081101561116657600080fd5b81019080803573ffffffffffffffffffffffffffffffffffffffff169060200190929190803573ffffffffffffffffffffffffffffffffffffffff169060200190929190505050612ed8565b60405180821515815260200191505060405180910390f35b3480156111d657600080fd5b506112e4600480360360a08110156111ed57600080fd5b81019080803573ffffffffffffffffffffffffffffffffffffffff169060200190929190803573ffffffffffffffffffffffffffffffffffffffff16906020019092919080359060200190929190803590602001909291908035906020019064010000000081111561125e57600080fd5b82018360208201111561127057600080fd5b8035906020019184600183028401116401000000008311171561129257600080fd5b91908080601f016020809104026020016040519081016040528093929190818152602001838380828437600081840152601f19601f820116905080830192505050505050509192919290505050612f6c565b005b3480156112f257600080fd5b506113356004803603602081101561130957600080fd5b81019080803573ffffffffffffffffffffffffffffffffffffffff1690602001909291905050506132e1565b005b60008073ffffffffffffffffffffffffffffffffffffffff168373ffffffffffffffffffffffffffffffffffffffff1614156113be576040517f08c379a000000000000000000000000000000000000000000000000000000000815260040180806020018281038252602b8152602001806141e4602b913960400191505060405180910390fd5b6001600083815260200190815260200160002060008473ffffffffffffffffffffffffffffffffffffffff1673ffffffffffffffffffffffffffffffffffffffff16815260200190815260200160002054905092915050565b6000806000837bffffffffffffffffffffffffffffffffffffffffffffffffffffffff19167bffffffffffffffffffffffffffffffffffffffffffffffffffffffff1916815260200190815260200160002060009054906101000a900460ff169050919050565b606060038054600181600116156101000203166002900480601f0160208091040260200160405190810160405280929190818152602001828054600181600116156101000203166002900480156115165780601f106114eb57610100808354040283529160200191611516565b820191906000526020600020905b8154815290600101906020018083116114f957829003601f168201915b50505050509050919050565b600a818154811061152f57fe5b906000526020600020016000915054906101000a900473ffffffffffffffffffffffffffffffffffffffff1681565b81518351146115b8576040517f08c379a00000000000000000000000000000000000000000000000000000000081526004018080602001828103825260288152602001806143856028913960400191505060405180910390fd5b600073ffffffffffffffffffffffffffffffffffffffff168473ffffffffffffffffffffffffffffffffffffffff16141561163e576040517f08c379a000000000000000000000000000000000000000000000000000000000815260040180806020018281038252602581526020018061425e6025913960400191505060405180910390fd5b6116466134d6565b73ffffffffffffffffffffffffffffffffffffffff168573ffffffffffffffffffffffffffffffffffffffff16148061168c575061168b856116866134d6565b612ed8565b5b6116e1576040517f08c379a00000000000000000000000000000000000000000000000000000000081526004018080602001828103825260328152602001806142836032913960400191505060405180910390fd5b60006116eb6134d6565b90506116fb8187878787876134de565b60005b84518110156118cc57600085828151811061171557fe5b60200260200101519050600085838151811061172d57fe5b602002602001015190506117b4816040518060600160405280602a81526020016142df602a91396001600086815260200190815260200160002060008d73ffffffffffffffffffffffffffffffffffffffff1673ffffffffffffffffffffffffffffffffffffffff168152602001908152602001600020546134e69092919063ffffffff16565b6001600084815260200190815260200160002060008b73ffffffffffffffffffffffffffffffffffffffff1673ffffffffffffffffffffffffffffffffffffffff1681526020019081526020016000208190555061186b816001600085815260200190815260200160002060008b73ffffffffffffffffffffffffffffffffffffffff1673ffffffffffffffffffffffffffffffffffffffff168152602001908152602001600020546135a090919063ffffffff16565b6001600084815260200190815260200160002060008a73ffffffffffffffffffffffffffffffffffffffff1673ffffffffffffffffffffffffffffffffffffffff1681526020019081526020016000208190555050508060010190506116fe565b508473ffffffffffffffffffffffffffffffffffffffff168673ffffffffffffffffffffffffffffffffffffffff168273ffffffffffffffffffffffffffffffffffffffff167f4a39dc06d4c0dbc64b70af90fd698a233a518aa5d07e595d983b8c0526c8f7fb8787604051808060200180602001838103835285818151815260200191508051906020019060200280838360005b8381101561197c578082015181840152602081019050611961565b50505050905001838103825284818151815260200191508051906020019060200280838360005b838110156119be5780820151818401526020810190506119a3565b5050505090500194505050505060405180910390a46119e1818787878787613628565b505050505050565b60056020528060005260406000206000915054906101000a900460ff1681565b60608151835114611a65576040517f08c379a000000000000000000000000000000000000000000000000000000000815260040180806020018281038252602981526020018061435c6029913960400191505060405180910390fd5b6060835167ffffffffffffffff81118015611a7f57600080fd5b50604051908082528060200260200182016040528015611aae5781602001602082028036833780820191505090505b50905060005b8451811015611b1057611aed858281518110611acc57fe5b6020026020010151858381518110611ae057fe5b6020026020010151611337565b828281518110611af957fe5b602002602001018181525050806001019050611ab4565b508091505092915050565b60066020528060005260406000206000915090505481565b6009602052816000526040600020602052806000526040600020600091509150505481565b6000600b80549050905090565b611b6d6134d6565b73ffffffffffffffffffffffffffffffffffffffff16611b8b612568565b73ffffffffffffffffffffffffffffffffffffffff1614611c14576040517f08c379a00000000000000000000000000000000000000000000000000000000081526004018080602001828103825260208152602001807f4f776e61626c653a2063616c6c6572206973206e6f7420746865206f776e657281525060200191505060405180910390fd5b600073ffffffffffffffffffffffffffffffffffffffff16600460009054906101000a900473ffffffffffffffffffffffffffffffffffffffff1673ffffffffffffffffffffffffffffffffffffffff167f8be0079c531659141344cd1fd0a4f28419497f9722a3daafe3b4186f6b6457e060405160405180910390a36000600460006101000a81548173ffffffffffffffffffffffffffffffffffffffff021916908373ffffffffffffffffffffffffffffffffffffffff160217905550565b600860009054906101000a900473ffffffffffffffffffffffffffffffffffffffff1673ffffffffffffffffffffffffffffffffffffffff166108fc349081150290604051600060405180830381858888f19350505050158015611d3d573d6000803e3d6000fd5b506000662386f26fc1000090506000886040516020018082805190602001908083835b60208310611d835780518252602082019150602081019050602083039250611d60565b6001836020036101000a0380198251168184511680821785525050505050509050019150506040516020818303038152906040528051906020012060001c90506000828281611dce57fe5b0690506005600082815260200190815260200160002060009054906101000a900460ff1615611e65576040517f08c379a00000000000000000000000000000000000000000000000000000000081526004018080602001828103825260208152602001807f4572723a205069636b206120556e6971756520456e646561766f72204e616d6581525060200191505060405180910390fd5b60016005600083815260200190815260200160002060006101000a81548160ff021916908315150217905550611e99613f4a565b33816000019073ffffffffffffffffffffffffffffffffffffffff16908173ffffffffffffffffffffffffffffffffffffffff16815250508a81604001819052508981606001819052508181608001818152505060608a8360405160200180806020018060200184815260200180602001848103845286818151815260200191508051906020019080838360005b83811015611f42578082015181840152602081019050611f27565b50505050905090810190601f168015611f6f5780820380516001836020036101000a031916815260200191505b50848103835260018152602001807f2f00000000000000000000000000000000000000000000000000000000000000815250602001848103825260058152602001807f2e6a736f6e00000000000000000000000000000000000000000000000000000081525060200195505050505050604051602081830303815290604052905080826020018190525060608a8a8a8a60018b604051602001808781526020018060200186815260200185815260200184815260200180602001838103835288818151815260200191508051906020019080838360005b83811015612061578082015181840152602081019050612046565b50505050905090810190601f16801561208e5780820380516001836020036101000a031916815260200191505b50838103825284818151815260200191508051906020019080838360005b838110156120c75780820151818401526020810190506120ac565b50505050905090810190601f1680156120f45780820380516001836020036101000a031916815260200191505b50985050505050505050506040516020818303038152906040529050808360a00181905250600b83908060018154018082558091505060019003906000526020600020906006020160009091909190915060008201518160000160006101000a81548173ffffffffffffffffffffffffffffffffffffffff021916908373ffffffffffffffffffffffffffffffffffffffff16021790555060208201518160010190805190602001906121a8929190613f96565b5060408201518160020190805190602001906121c5929190614016565b5060608201518160030190805190602001906121e2929190614016565b506080820151816004015560a0820151816005019080519060200190612209929190613f96565b50505083600660003373ffffffffffffffffffffffffffffffffffffffff1673ffffffffffffffffffffffffffffffffffffffff16815260200190815260200160002081905550826007600086815260200190815260200160002060008201518160000160006101000a81548173ffffffffffffffffffffffffffffffffffffffff021916908373ffffffffffffffffffffffffffffffffffffffff16021790555060208201518160010190805190602001906122c7929190613f96565b5060408201518160020190805190602001906122e4929190614016565b506060820151816003019080519060200190612301929190614016565b506080820151816004015560a0820151816005019080519060200190612328929190613f96565b5090505061233833858d846139b7565b7fe4db4d9bae6a7ea1c8f58bae49da45e3112df950e97a0b718e738b109807232e836000015184602001518560400151866060015187608001518860a00151604051808773ffffffffffffffffffffffffffffffffffffffff1681526020018060200180602001806020018681526020018060200185810385528a818151815260200191508051906020019080838360005b838110156123e55780820151818401526020810190506123ca565b50505050905090810190601f1680156124125780820380516001836020036101000a031916815260200191505b50858103845289818151815260200191508051906020019080838360005b8381101561244b578082015181840152602081019050612430565b50505050905090810190601f1680156124785780820380516001836020036101000a031916815260200191505b50858103835288818151815260200191508051906020019080838360005b838110156124b1578082015181840152602081019050612496565b50505050905090810190601f1680156124de5780820380516001836020036101000a031916815260200191505b50858103825286818151815260200191508051906020019080838360005b838110156125175780820151818401526020810190506124fc565b50505050905090810190601f1680156125445780820380516001836020036101000a031916815260200191505b509a505050505050505050505060405180910390a150505050505050505050505050565b6000600460009054906101000a900473ffffffffffffffffffffffffffffffffffffffff16905090565b60008383023410156125ef576040517f08c379a000000000000000000000000000000000000000000000000000000000815260040180806020018281038252602a8152602001806142b5602a913960400191505060405180910390fd5b836125fa8787611337565b1015612651576040517f08c379a000000000000000000000000000000000000000000000000000000000815260040180806020018281038252602a815260200180614309602a913960400191505060405180910390fd5b600860009054906101000a900473ffffffffffffffffffffffffffffffffffffffff1673ffffffffffffffffffffffffffffffffffffffff166108fc349081150290604051600060405180830381858888f193505050501580156126b9573d6000803e3d6000fd5b506126c78633878786612f6c565b836009600087815260200190815260200160002060003373ffffffffffffffffffffffffffffffffffffffff1673ffffffffffffffffffffffffffffffffffffffff16815260200190815260200160002060008282540192505081905550600a339080600181540180825580915050600190039060005260206000200160009091909190916101000a81548173ffffffffffffffffffffffffffffffffffffffff021916908373ffffffffffffffffffffffffffffffffffffffff16021790555033905095945050505050565b8173ffffffffffffffffffffffffffffffffffffffff166127b36134d6565b73ffffffffffffffffffffffffffffffffffffffff161415612820576040517f08c379a00000000000000000000000000000000000000000000000000000000081526004018080602001828103825260298152602001806143336029913960400191505060405180910390fd5b806002600061282d6134d6565b73ffffffffffffffffffffffffffffffffffffffff1673ffffffffffffffffffffffffffffffffffffffff16815260200190815260200160002060008473ffffffffffffffffffffffffffffffffffffffff1673ffffffffffffffffffffffffffffffffffffffff16815260200190815260200160002060006101000a81548160ff0219169083151502179055508173ffffffffffffffffffffffffffffffffffffffff166128da6134d6565b73ffffffffffffffffffffffffffffffffffffffff167f17307eab39ab6107e8899845ad3d59bd9653f200f220920489ca2b5937696c318360405180821515815260200191505060405180910390a35050565b60076020528060005260406000206000915090508060000160009054906101000a900473ffffffffffffffffffffffffffffffffffffffff1690806001018054600181600116156101000203166002900480601f0160208091040260200160405190810160405280929190818152602001828054600181600116156101000203166002900480156129ff5780601f106129d4576101008083540402835291602001916129ff565b820191906000526020600020905b8154815290600101906020018083116129e257829003601f168201915b505050505090806002018054600181600116156101000203166002900480601f016020809104026020016040519081016040528092919081815260200182805460018160011615610100020316600290048015612a9d5780601f10612a7257610100808354040283529160200191612a9d565b820191906000526020600020905b815481529060010190602001808311612a8057829003601f168201915b505050505090806003018054600181600116156101000203166002900480601f016020809104026020016040519081016040528092919081815260200182805460018160011615610100020316600290048015612b3b5780601f10612b1057610100808354040283529160200191612b3b565b820191906000526020600020905b815481529060010190602001808311612b1e57829003601f168201915b505050505090806004015490806005018054600181600116156101000203166002900480601f016020809104026020016040519081016040528092919081815260200182805460018160011615610100020316600290048015612bdf5780601f10612bb457610100808354040283529160200191612bdf565b820191906000526020600020905b815481529060010190602001808311612bc257829003601f168201915b5050505050905086565b600860009054906101000a900473ffffffffffffffffffffffffffffffffffffffff1681565b600b8181548110612c1c57fe5b90600052602060002090600602016000915090508060000160009054906101000a900473ffffffffffffffffffffffffffffffffffffffff1690806001018054600181600116156101000203166002900480601f016020809104026020016040519081016040528092919081815260200182805460018160011615610100020316600290048015612cee5780601f10612cc357610100808354040283529160200191612cee565b820191906000526020600020905b815481529060010190602001808311612cd157829003601f168201915b505050505090806002018054600181600116156101000203166002900480601f016020809104026020016040519081016040528092919081815260200182805460018160011615610100020316600290048015612d8c5780601f10612d6157610100808354040283529160200191612d8c565b820191906000526020600020905b815481529060010190602001808311612d6f57829003601f168201915b505050505090806003018054600181600116156101000203166002900480601f016020809104026020016040519081016040528092919081815260200182805460018160011615610100020316600290048015612e2a5780601f10612dff57610100808354040283529160200191612e2a565b820191906000526020600020905b815481529060010190602001808311612e0d57829003601f168201915b505050505090806004015490806005018054600181600116156101000203166002900480601f016020809104026020016040519081016040528092919081815260200182805460018160011615610100020316600290048015612ece5780601f10612ea357610100808354040283529160200191612ece565b820191906000526020600020905b815481529060010190602001808311612eb157829003601f168201915b5050505050905086565b6000600260008473ffffffffffffffffffffffffffffffffffffffff1673ffffffffffffffffffffffffffffffffffffffff16815260200190815260200160002060008373ffffffffffffffffffffffffffffffffffffffff1673ffffffffffffffffffffffffffffffffffffffff16815260200190815260200160002060009054906101000a900460ff16905092915050565b600073ffffffffffffffffffffffffffffffffffffffff168473ffffffffffffffffffffffffffffffffffffffff161415612ff2576040517f08c379a000000000000000000000000000000000000000000000000000000000815260040180806020018281038252602581526020018061425e6025913960400191505060405180910390fd5b612ffa6134d6565b73ffffffffffffffffffffffffffffffffffffffff168573ffffffffffffffffffffffffffffffffffffffff161480613040575061303f8561303a6134d6565b612ed8565b5b613095576040517f08c379a00000000000000000000000000000000000000000000000000000000081526004018080602001828103825260298152602001806142356029913960400191505060405180910390fd5b600061309f6134d6565b90506130bf8187876130b088613bba565b6130b988613bba565b876134de565b61313c836040518060600160405280602a81526020016142df602a91396001600088815260200190815260200160002060008a73ffffffffffffffffffffffffffffffffffffffff1673ffffffffffffffffffffffffffffffffffffffff168152602001908152602001600020546134e69092919063ffffffff16565b6001600086815260200190815260200160002060008873ffffffffffffffffffffffffffffffffffffffff1673ffffffffffffffffffffffffffffffffffffffff168152602001908152602001600020819055506131f3836001600087815260200190815260200160002060008873ffffffffffffffffffffffffffffffffffffffff1673ffffffffffffffffffffffffffffffffffffffff168152602001908152602001600020546135a090919063ffffffff16565b6001600086815260200190815260200160002060008773ffffffffffffffffffffffffffffffffffffffff1673ffffffffffffffffffffffffffffffffffffffff168152602001908152602001600020819055508473ffffffffffffffffffffffffffffffffffffffff168673ffffffffffffffffffffffffffffffffffffffff168273ffffffffffffffffffffffffffffffffffffffff167fc3d58168c5ae7397731d063d5bbf3d657854427343f4c083240f7aacaa2d0f628787604051808381526020018281526020019250505060405180910390a46132d9818787878787613c2a565b505050505050565b6132e96134d6565b73ffffffffffffffffffffffffffffffffffffffff16613307612568565b73ffffffffffffffffffffffffffffffffffffffff1614613390576040517f08c379a00000000000000000000000000000000000000000000000000000000081526004018080602001828103825260208152602001807f4f776e61626c653a2063616c6c6572206973206e6f7420746865206f776e657281525060200191505060405180910390fd5b600073ffffffffffffffffffffffffffffffffffffffff168173ffffffffffffffffffffffffffffffffffffffff161415613416576040517f08c379a000000000000000000000000000000000000000000000000000000000815260040180806020018281038252602681526020018061420f6026913960400191505060405180910390fd5b8073ffffffffffffffffffffffffffffffffffffffff16600460009054906101000a900473ffffffffffffffffffffffffffffffffffffffff1673ffffffffffffffffffffffffffffffffffffffff167f8be0079c531659141344cd1fd0a4f28419497f9722a3daafe3b4186f6b6457e060405160405180910390a380600460006101000a81548173ffffffffffffffffffffffffffffffffffffffff021916908373ffffffffffffffffffffffffffffffffffffffff16021790555050565b600033905090565b505050505050565b6000838311158290613593576040517f08c379a00000000000000000000000000000000000000000000000000000000081526004018080602001828103825283818151815260200191508051906020019080838360005b8381101561355857808201518184015260208101905061353d565b50505050905090810190601f1680156135855780820380516001836020036101000a031916815260200191505b509250505060405180910390fd5b5082840390509392505050565b60008082840190508381101561361e576040517f08c379a000000000000000000000000000000000000000000000000000000000815260040180806020018281038252601b8152602001807f536166654d6174683a206164646974696f6e206f766572666c6f77000000000081525060200191505060405180910390fd5b8091505092915050565b6136478473ffffffffffffffffffffffffffffffffffffffff16613f37565b156139af578373ffffffffffffffffffffffffffffffffffffffff1663bc197c8187878686866040518663ffffffff1660e01b8152600401808673ffffffffffffffffffffffffffffffffffffffff1681526020018573ffffffffffffffffffffffffffffffffffffffff168152602001806020018060200180602001848103845287818151815260200191508051906020019060200280838360005b838110156136ff5780820151818401526020810190506136e4565b50505050905001848103835286818151815260200191508051906020019060200280838360005b83811015613741578082015181840152602081019050613726565b50505050905001848103825285818151815260200191508051906020019080838360005b83811015613780578082015181840152602081019050613765565b50505050905090810190601f1680156137ad5780820380516001836020036101000a031916815260200191505b5098505050505050505050602060405180830381600087803b1580156137d257600080fd5b505af192505050801561380657506040513d60208110156137f257600080fd5b810190808051906020019092919050505060015b613910576138126140d1565b8061381d57506138bf565b806040517f08c379a00000000000000000000000000000000000000000000000000000000081526004018080602001828103825283818151815260200191508051906020019080838360005b83811015613884578082015181840152602081019050613869565b50505050905090810190601f1680156138b15780820380516001836020036101000a031916815260200191505b509250505060405180910390fd5b6040517f08c379a00000000000000000000000000000000000000000000000000000000081526004018080602001828103825260348152602001806141886034913960400191505060405180910390fd5b63bc197c8160e01b7bffffffffffffffffffffffffffffffffffffffffffffffffffffffff1916817bffffffffffffffffffffffffffffffffffffffffffffffffffffffff1916146139ad576040517f08c379a00000000000000000000000000000000000000000000000000000000081526004018080602001828103825260288152602001806141bc6028913960400191505060405180910390fd5b505b505050505050565b600073ffffffffffffffffffffffffffffffffffffffff168473ffffffffffffffffffffffffffffffffffffffff161415613a3d576040517f08c379a00000000000000000000000000000000000000000000000000000000081526004018080602001828103825260218152602001806143ad6021913960400191505060405180910390fd5b6000613a476134d6565b9050613a6881600087613a5988613bba565b613a6288613bba565b876134de565b613acb836001600087815260200190815260200160002060008873ffffffffffffffffffffffffffffffffffffffff1673ffffffffffffffffffffffffffffffffffffffff168152602001908152602001600020546135a090919063ffffffff16565b6001600086815260200190815260200160002060008773ffffffffffffffffffffffffffffffffffffffff1673ffffffffffffffffffffffffffffffffffffffff168152602001908152602001600020819055508473ffffffffffffffffffffffffffffffffffffffff16600073ffffffffffffffffffffffffffffffffffffffff168273ffffffffffffffffffffffffffffffffffffffff167fc3d58168c5ae7397731d063d5bbf3d657854427343f4c083240f7aacaa2d0f628787604051808381526020018281526020019250505060405180910390a4613bb381600087878787613c2a565b5050505050565b606080600167ffffffffffffffff81118015613bd557600080fd5b50604051908082528060200260200182016040528015613c045781602001602082028036833780820191505090505b5090508281600081518110613c1557fe5b60200260200101818152505080915050919050565b613c498473ffffffffffffffffffffffffffffffffffffffff16613f37565b15613f2f578373ffffffffffffffffffffffffffffffffffffffff1663f23a6e6187878686866040518663ffffffff1660e01b8152600401808673ffffffffffffffffffffffffffffffffffffffff1681526020018573ffffffffffffffffffffffffffffffffffffffff16815260200184815260200183815260200180602001828103825283818151815260200191508051906020019080838360005b83811015613d02578082015181840152602081019050613ce7565b50505050905090810190601f168015613d2f5780820380516001836020036101000a031916815260200191505b509650505050505050602060405180830381600087803b158015613d5257600080fd5b505af1925050508015613d8657506040513d6020811015613d7257600080fd5b810190808051906020019092919050505060015b613e9057613d926140d1565b80613d9d5750613e3f565b806040517f08c379a00000000000000000000000000000000000000000000000000000000081526004018080602001828103825283818151815260200191508051906020019080838360005b83811015613e04578082015181840152602081019050613de9565b50505050905090810190601f168015613e315780820380516001836020036101000a031916815260200191505b509250505060405180910390fd5b6040517f08c379a00000000000000000000000000000000000000000000000000000000081526004018080602001828103825260348152602001806141886034913960400191505060405180910390fd5b63f23a6e6160e01b7bffffffffffffffffffffffffffffffffffffffffffffffffffffffff1916817bffffffffffffffffffffffffffffffffffffffffffffffffffffffff191614613f2d576040517f08c379a00000000000000000000000000000000000000000000000000000000081526004018080602001828103825260288152602001806141bc6028913960400191505060405180910390fd5b505b505050505050565b600080823b905060008111915050919050565b6040518060c00160405280600073ffffffffffffffffffffffffffffffffffffffff16815260200160608152602001606081526020016060815260200160008152602001606081525090565b828054600181600116156101000203166002900490600052602060002090601f016020900481019282601f10613fd757805160ff1916838001178555614005565b82800160010185558215614005579182015b82811115614004578251825591602001919060010190613fe9565b5b5090506140129190614096565b5090565b828054600181600116156101000203166002900490600052602060002090601f016020900481019282601f1061405757805160ff1916838001178555614085565b82800160010185558215614085579182015b82811115614084578251825591602001919060010190614069565b5b5090506140929190614096565b5090565b5b808211156140af576000816000905550600101614097565b5090565b6000601f19601f8301169050919050565b60008160e01c9050919050565b600060443d10156140e157614184565b60046000803e6140f26000516140c4565b6308c379a081146141035750614184565b60405160043d036004823e80513d602482011167ffffffffffffffff8211171561412f57505050614184565b808201805167ffffffffffffffff81111561414e575050505050614184565b8060208301013d850181111561416957505050505050614184565b614172826140b3565b60208401016040528296505050505050505b9056fe455243313135353a207472616e7366657220746f206e6f6e2045524331313535526563656976657220696d706c656d656e746572455243313135353a204552433131353552656365697665722072656a656374656420746f6b656e73455243313135353a2062616c616e636520717565727920666f7220746865207a65726f20616464726573734f776e61626c653a206e6577206f776e657220697320746865207a65726f2061646472657373455243313135353a2063616c6c6572206973206e6f74206f776e6572206e6f7220617070726f766564455243313135353a207472616e7366657220746f20746865207a65726f2061646472657373455243313135353a207472616e736665722063616c6c6572206973206e6f74206f776e6572206e6f7220617070726f7665644572723a206e6f7420656e6f756768206574682073656e742c204e6f20536f757020466f7220596f7521455243313135353a20696e73756666696369656e742062616c616e636520666f72207472616e736665724572723a206e6f7420656e6f75676820746f6b656e7320746f2066696c6c20796f7572206f7264657221455243313135353a2073657474696e6720617070726f76616c2073746174757320666f722073656c66455243313135353a206163636f756e747320616e6420696473206c656e677468206d69736d61746368455243313135353a2069647320616e6420616d6f756e7473206c656e677468206d69736d61746368455243313135353a206d696e7420746f20746865207a65726f2061646472657373a2646970667358221220fcca67d883d7572ef3384b3873136f211ba992164eef6f31a77ea98156e1590a64736f6c634300060c0033687474703a2f2f6c6f63616c686f73743a333030302f7075626c69632f23212f74726561737572655f63686573742f7b69647d2e6a736f6e",
  "immutableReferences": {},
  "source": "pragma solidity >=0.4.21 <0.7.0;\nimport \"@openzeppelin/contracts/token/ERC1155/ERC1155.sol\";\nimport '@openzeppelin/contracts/access/Ownable.sol';\nimport \"./Alm.sol\";\n\ncontract AngelToken is ERC1155, Ownable{\n  /* State variables are stored in the blockchain */\n  mapping(uint256 => bool) public is_on_manifest;\n  mapping (address => uint256) public map_owner_to_id;\n  mapping (uint256 => Alms.Alm) public map_id_to_Alm;\n\n  address payable public OA = msg.sender;\n  mapping(uint256 => mapping(address => uint256)) public Angel_Map;\n  address payable [] public Angel_List;\n\n  Alms.Alm[] public alms;\n  event ManifestedAngelToken(\n     address owner,\n      bytes _uri,\n       string _ename,\n        string _esym,\n         uint256 _id,\n          bytes mint_data\n           );\n\n  constructor()\n    ERC1155(\"http://localhost:3000/public/#!/treasure_chest/{id}.json\")\n      Ownable()\n          public {\n          }\n\n   function tokenGenesis (string memory _ename,string memory _esym,uint256 _num_to_issue,\n         string memory _mint_date,uint256 _cost,uint256 _angel_coefficient,string memory _product)\n      public payable {\n          OA.transfer(msg.value);\n          uint256 idmod = 10 ** 16;\n          uint256 token_id = uint256(keccak256(abi.encodePacked(_ename)));\n          uint256 _id = token_id % idmod;\n          require(!is_on_manifest[_id], \"Err: Pick a Unique Endeavor Name\");\n          is_on_manifest[_id] = true;\n          Alms.Alm memory new_alm;\n          new_alm.owner = msg.sender;\n          new_alm.name = _ename;\n          new_alm.sym = _esym;\n          new_alm.id = _id;\n          bytes memory new_uri = abi.encode(_esym, \"/\", _id, \".json\");\n          new_alm.uri = new_uri;\n          bytes memory mintData = abi.encode(_num_to_issue, _mint_date, _cost, _angel_coefficient, 1, _product);\n          new_alm.mint_data = mintData;\n          alms.push(new_alm);\n          map_owner_to_id[msg.sender] = _id;\n          map_id_to_Alm[_id] = new_alm;\n          _mint(msg.sender, _id, _num_to_issue, mintData);\n          emit ManifestedAngelToken(new_alm.owner,new_alm.uri,new_alm.name,new_alm.sym,new_alm.id,new_alm.mint_data);\n  }\n  function getAlmsLength() public view returns(uint256){\n    return alms.length;\n  }\n  function buyAlms(address payable _owner, uint256 _id, uint256 _amount, uint256 _cost, bytes memory _data) public payable returns(address){\n      require(msg.value >= (_cost * _amount), \"Err: not enough eth sent, No Soup For You!\");\n      require(balanceOf(_owner, _id) >= _amount, \"Err: not enough tokens to fill your order!\");\n      // uint256 OA_share = msg.value - (_amount/1000);\n      // _owner.transfer(msg.value - OA_share);\n      OA.transfer(msg.value);\n      safeTransferFrom(_owner, msg.sender, _id, _amount, _data);\n      Angel_Map[_id][msg.sender] += _amount;\n      Angel_List.push(msg.sender);\n      return msg.sender;\n  }\n}\n",
  "sourcePath": "/Volumes/TerryBytes2/2021_Kode_Tut/CafLaM_MEAN_Stack/contracts/AngelToken.sol",
  "compiler": {
    "name": "solc",
    "version": "0.6.12+commit.27d51765.Emscripten.clang"
  },
  "schemaVersion": "3.4.3",
  "updatedAt": "2021-11-05T21:56:51.420Z",
  "networkType": "ethereum",
  "devdoc": {
    "kind": "dev",
    "methods": {
      "balanceOf(address,uint256)": {
        "details": "See {IERC1155-balanceOf}. Requirements: - `account` cannot be the zero address."
      },
      "balanceOfBatch(address[],uint256[])": {
        "details": "See {IERC1155-balanceOfBatch}. Requirements: - `accounts` and `ids` must have the same length."
      },
      "isApprovedForAll(address,address)": {
        "details": "See {IERC1155-isApprovedForAll}."
      },
      "owner()": {
        "details": "Returns the address of the current owner."
      },
      "renounceOwnership()": {
        "details": "Leaves the contract without owner. It will not be possible to call `onlyOwner` functions anymore. Can only be called by the current owner. NOTE: Renouncing ownership will leave the contract without an owner, thereby removing any functionality that is only available to the owner."
      },
      "safeBatchTransferFrom(address,address,uint256[],uint256[],bytes)": {
        "details": "See {IERC1155-safeBatchTransferFrom}."
      },
      "safeTransferFrom(address,address,uint256,uint256,bytes)": {
        "details": "See {IERC1155-safeTransferFrom}."
      },
      "setApprovalForAll(address,bool)": {
        "details": "See {IERC1155-setApprovalForAll}."
      },
      "supportsInterface(bytes4)": {
        "details": "See {IERC165-supportsInterface}. Time complexity O(1), guaranteed to always use less than 30 000 gas."
      },
      "transferOwnership(address)": {
        "details": "Transfers ownership of the contract to a new account (`newOwner`). Can only be called by the current owner."
      },
      "uri(uint256)": {
        "details": "See {IERC1155MetadataURI-uri}. This implementation returns the same URI for *all* token types. It relies on the token type ID substitution mechanism https://eips.ethereum.org/EIPS/eip-1155#metadata[defined in the EIP]. Clients calling this function must replace the `\\{id\\}` substring with the actual token type ID."
      }
    },
    "version": 1
  },
  "userdoc": {
    "kind": "user",
    "methods": {},
    "version": 1
  }
}