{
  "contractName": "AT_X",
  "abi": [
    {
      "inputs": [],
      "stateMutability": "nonpayable",
      "type": "constructor"
    },
    {
      "anonymous": false,
      "inputs": [
        {
          "indexed": true,
          "internalType": "address",
          "name": "account",
          "type": "address"
        },
        {
          "indexed": true,
          "internalType": "address",
          "name": "operator",
          "type": "address"
        },
        {
          "indexed": false,
          "internalType": "bool",
          "name": "approved",
          "type": "bool"
        }
      ],
      "name": "ApprovalForAll",
      "type": "event"
    },
    {
      "anonymous": false,
      "inputs": [
        {
          "indexed": false,
          "internalType": "address",
          "name": "owner",
          "type": "address"
        },
        {
          "indexed": false,
          "internalType": "bytes",
          "name": "_uri",
          "type": "bytes"
        },
        {
          "indexed": false,
          "internalType": "string",
          "name": "_ename",
          "type": "string"
        },
        {
          "indexed": false,
          "internalType": "string",
          "name": "_esym",
          "type": "string"
        },
        {
          "indexed": false,
          "internalType": "uint256",
          "name": "_id",
          "type": "uint256"
        },
        {
          "indexed": false,
          "internalType": "bytes",
          "name": "mint_data",
          "type": "bytes"
        }
      ],
      "name": "ManifestedAngelToken",
      "type": "event"
    },
    {
      "anonymous": false,
      "inputs": [
        {
          "indexed": true,
          "internalType": "address",
          "name": "previousOwner",
          "type": "address"
        },
        {
          "indexed": true,
          "internalType": "address",
          "name": "newOwner",
          "type": "address"
        }
      ],
      "name": "OwnershipTransferred",
      "type": "event"
    },
    {
      "anonymous": false,
      "inputs": [
        {
          "indexed": true,
          "internalType": "address",
          "name": "operator",
          "type": "address"
        },
        {
          "indexed": true,
          "internalType": "address",
          "name": "from",
          "type": "address"
        },
        {
          "indexed": true,
          "internalType": "address",
          "name": "to",
          "type": "address"
        },
        {
          "indexed": false,
          "internalType": "uint256[]",
          "name": "ids",
          "type": "uint256[]"
        },
        {
          "indexed": false,
          "internalType": "uint256[]",
          "name": "values",
          "type": "uint256[]"
        }
      ],
      "name": "TransferBatch",
      "type": "event"
    },
    {
      "anonymous": false,
      "inputs": [
        {
          "indexed": true,
          "internalType": "address",
          "name": "operator",
          "type": "address"
        },
        {
          "indexed": true,
          "internalType": "address",
          "name": "from",
          "type": "address"
        },
        {
          "indexed": true,
          "internalType": "address",
          "name": "to",
          "type": "address"
        },
        {
          "indexed": false,
          "internalType": "uint256",
          "name": "id",
          "type": "uint256"
        },
        {
          "indexed": false,
          "internalType": "uint256",
          "name": "value",
          "type": "uint256"
        }
      ],
      "name": "TransferSingle",
      "type": "event"
    },
    {
      "anonymous": false,
      "inputs": [
        {
          "indexed": false,
          "internalType": "string",
          "name": "value",
          "type": "string"
        },
        {
          "indexed": true,
          "internalType": "uint256",
          "name": "id",
          "type": "uint256"
        }
      ],
      "name": "URI",
      "type": "event"
    },
    {
      "inputs": [
        {
          "internalType": "uint256",
          "name": "",
          "type": "uint256"
        }
      ],
      "name": "Angel_List",
      "outputs": [
        {
          "internalType": "address payable",
          "name": "",
          "type": "address"
        }
      ],
      "stateMutability": "view",
      "type": "function",
      "constant": true
    },
    {
      "inputs": [
        {
          "internalType": "uint256",
          "name": "",
          "type": "uint256"
        },
        {
          "internalType": "address",
          "name": "",
          "type": "address"
        }
      ],
      "name": "Angel_Map",
      "outputs": [
        {
          "internalType": "uint256",
          "name": "",
          "type": "uint256"
        }
      ],
      "stateMutability": "view",
      "type": "function",
      "constant": true
    },
    {
      "inputs": [],
      "name": "OA",
      "outputs": [
        {
          "internalType": "address payable",
          "name": "",
          "type": "address"
        }
      ],
      "stateMutability": "view",
      "type": "function",
      "constant": true
    },
    {
      "inputs": [
        {
          "internalType": "uint256",
          "name": "",
          "type": "uint256"
        }
      ],
      "name": "alms",
      "outputs": [
        {
          "internalType": "address payable",
          "name": "owner",
          "type": "address"
        },
        {
          "internalType": "bytes",
          "name": "uri",
          "type": "bytes"
        },
        {
          "internalType": "string",
          "name": "name",
          "type": "string"
        },
        {
          "internalType": "string",
          "name": "sym",
          "type": "string"
        },
        {
          "internalType": "uint256",
          "name": "id",
          "type": "uint256"
        },
        {
          "internalType": "bytes",
          "name": "mint_data",
          "type": "bytes"
        }
      ],
      "stateMutability": "view",
      "type": "function",
      "constant": true
    },
    {
      "inputs": [
        {
          "internalType": "address",
          "name": "account",
          "type": "address"
        },
        {
          "internalType": "uint256",
          "name": "id",
          "type": "uint256"
        }
      ],
      "name": "balanceOf",
      "outputs": [
        {
          "internalType": "uint256",
          "name": "",
          "type": "uint256"
        }
      ],
      "stateMutability": "view",
      "type": "function",
      "constant": true
    },
    {
      "inputs": [
        {
          "internalType": "address[]",
          "name": "accounts",
          "type": "address[]"
        },
        {
          "internalType": "uint256[]",
          "name": "ids",
          "type": "uint256[]"
        }
      ],
      "name": "balanceOfBatch",
      "outputs": [
        {
          "internalType": "uint256[]",
          "name": "",
          "type": "uint256[]"
        }
      ],
      "stateMutability": "view",
      "type": "function",
      "constant": true
    },
    {
      "inputs": [
        {
          "internalType": "address payable",
          "name": "_owner",
          "type": "address"
        },
        {
          "internalType": "uint256",
          "name": "_id",
          "type": "uint256"
        },
        {
          "internalType": "uint256",
          "name": "_amount",
          "type": "uint256"
        },
        {
          "internalType": "uint256",
          "name": "_cost",
          "type": "uint256"
        },
        {
          "internalType": "bytes",
          "name": "_data",
          "type": "bytes"
        }
      ],
      "name": "buyAlms",
      "outputs": [
        {
          "internalType": "address",
          "name": "",
          "type": "address"
        }
      ],
      "stateMutability": "payable",
      "type": "function",
      "payable": true
    },
    {
      "inputs": [],
      "name": "getAlmsLength",
      "outputs": [
        {
          "internalType": "uint256",
          "name": "",
          "type": "uint256"
        }
      ],
      "stateMutability": "view",
      "type": "function",
      "constant": true
    },
    {
      "inputs": [
        {
          "internalType": "address",
          "name": "account",
          "type": "address"
        },
        {
          "internalType": "address",
          "name": "operator",
          "type": "address"
        }
      ],
      "name": "isApprovedForAll",
      "outputs": [
        {
          "internalType": "bool",
          "name": "",
          "type": "bool"
        }
      ],
      "stateMutability": "view",
      "type": "function",
      "constant": true
    },
    {
      "inputs": [
        {
          "internalType": "uint256",
          "name": "",
          "type": "uint256"
        }
      ],
      "name": "is_on_manifest",
      "outputs": [
        {
          "internalType": "bool",
          "name": "",
          "type": "bool"
        }
      ],
      "stateMutability": "view",
      "type": "function",
      "constant": true
    },
    {
      "inputs": [],
      "name": "last_rnd_id",
      "outputs": [
        {
          "internalType": "uint256",
          "name": "",
          "type": "uint256"
        }
      ],
      "stateMutability": "view",
      "type": "function",
      "constant": true
    },
    {
      "inputs": [
        {
          "internalType": "uint256",
          "name": "",
          "type": "uint256"
        },
        {
          "internalType": "address",
          "name": "",
          "type": "address"
        }
      ],
      "name": "map_angel_to_payout",
      "outputs": [
        {
          "internalType": "uint256",
          "name": "",
          "type": "uint256"
        }
      ],
      "stateMutability": "view",
      "type": "function",
      "constant": true
    },
    {
      "inputs": [
        {
          "internalType": "uint256",
          "name": "",
          "type": "uint256"
        }
      ],
      "name": "map_id_to_Alm",
      "outputs": [
        {
          "internalType": "address payable",
          "name": "owner",
          "type": "address"
        },
        {
          "internalType": "bytes",
          "name": "uri",
          "type": "bytes"
        },
        {
          "internalType": "string",
          "name": "name",
          "type": "string"
        },
        {
          "internalType": "string",
          "name": "sym",
          "type": "string"
        },
        {
          "internalType": "uint256",
          "name": "id",
          "type": "uint256"
        },
        {
          "internalType": "bytes",
          "name": "mint_data",
          "type": "bytes"
        }
      ],
      "stateMutability": "view",
      "type": "function",
      "constant": true
    },
    {
      "inputs": [
        {
          "internalType": "address",
          "name": "",
          "type": "address"
        }
      ],
      "name": "map_owner_to_id",
      "outputs": [
        {
          "internalType": "uint256",
          "name": "",
          "type": "uint256"
        }
      ],
      "stateMutability": "view",
      "type": "function",
      "constant": true
    },
    {
      "inputs": [],
      "name": "owner",
      "outputs": [
        {
          "internalType": "address",
          "name": "",
          "type": "address"
        }
      ],
      "stateMutability": "view",
      "type": "function",
      "constant": true
    },
    {
      "inputs": [],
      "name": "renounceOwnership",
      "outputs": [],
      "stateMutability": "nonpayable",
      "type": "function"
    },
    {
      "inputs": [
        {
          "internalType": "address",
          "name": "from",
          "type": "address"
        },
        {
          "internalType": "address",
          "name": "to",
          "type": "address"
        },
        {
          "internalType": "uint256[]",
          "name": "ids",
          "type": "uint256[]"
        },
        {
          "internalType": "uint256[]",
          "name": "amounts",
          "type": "uint256[]"
        },
        {
          "internalType": "bytes",
          "name": "data",
          "type": "bytes"
        }
      ],
      "name": "safeBatchTransferFrom",
      "outputs": [],
      "stateMutability": "nonpayable",
      "type": "function"
    },
    {
      "inputs": [
        {
          "internalType": "address",
          "name": "from",
          "type": "address"
        },
        {
          "internalType": "address",
          "name": "to",
          "type": "address"
        },
        {
          "internalType": "uint256",
          "name": "id",
          "type": "uint256"
        },
        {
          "internalType": "uint256",
          "name": "amount",
          "type": "uint256"
        },
        {
          "internalType": "bytes",
          "name": "data",
          "type": "bytes"
        }
      ],
      "name": "safeTransferFrom",
      "outputs": [],
      "stateMutability": "nonpayable",
      "type": "function"
    },
    {
      "inputs": [
        {
          "internalType": "address",
          "name": "operator",
          "type": "address"
        },
        {
          "internalType": "bool",
          "name": "approved",
          "type": "bool"
        }
      ],
      "name": "setApprovalForAll",
      "outputs": [],
      "stateMutability": "nonpayable",
      "type": "function"
    },
    {
      "inputs": [
        {
          "internalType": "bytes4",
          "name": "interfaceId",
          "type": "bytes4"
        }
      ],
      "name": "supportsInterface",
      "outputs": [
        {
          "internalType": "bool",
          "name": "",
          "type": "bool"
        }
      ],
      "stateMutability": "view",
      "type": "function",
      "constant": true
    },
    {
      "inputs": [
        {
          "internalType": "string",
          "name": "_ename",
          "type": "string"
        },
        {
          "internalType": "string",
          "name": "_esym",
          "type": "string"
        },
        {
          "internalType": "uint256",
          "name": "_num_to_issue",
          "type": "uint256"
        },
        {
          "internalType": "string",
          "name": "_mint_date",
          "type": "string"
        },
        {
          "internalType": "uint256",
          "name": "_cost",
          "type": "uint256"
        },
        {
          "internalType": "uint256",
          "name": "_angel_coefficient",
          "type": "uint256"
        },
        {
          "internalType": "string",
          "name": "_product",
          "type": "string"
        }
      ],
      "name": "tokenGenesis",
      "outputs": [],
      "stateMutability": "payable",
      "type": "function",
      "payable": true
    },
    {
      "inputs": [
        {
          "internalType": "address",
          "name": "newOwner",
          "type": "address"
        }
      ],
      "name": "transferOwnership",
      "outputs": [],
      "stateMutability": "nonpayable",
      "type": "function"
    },
    {
      "inputs": [
        {
          "internalType": "uint256",
          "name": "",
          "type": "uint256"
        }
      ],
      "name": "uri",
      "outputs": [
        {
          "internalType": "string",
          "name": "",
          "type": "string"
        }
      ],
      "stateMutability": "view",
      "type": "function",
      "constant": true
    },
    {
      "inputs": [
        {
          "internalType": "address payable",
          "name": "_owner",
          "type": "address"
        },
        {
          "internalType": "uint256",
          "name": "_id",
          "type": "uint256"
        }
      ],
      "name": "crowdfund_execution",
      "outputs": [
        {
          "internalType": "bool",
          "name": "executed",
          "type": "bool"
        }
      ],
      "stateMutability": "nonpayable",
      "type": "function"
    },
    {
      "inputs": [
        {
          "internalType": "uint256",
          "name": "_id",
          "type": "uint256"
        }
      ],
      "name": "change_status_s",
      "outputs": [],
      "stateMutability": "nonpayable",
      "type": "function"
    }
  ],
  "bytecode": "0x608060405233600860006101000a81548173ffffffffffffffffffffffffffffffffffffffff021916908373ffffffffffffffffffffffffffffffffffffffff1602179055506000600c553480156200005757600080fd5b50604051806060016040528060388152602001620061e2603891396200008a6301ffc9a760e01b6200018360201b60201c565b6200009b816200028c60201b60201c565b620000b363d9b67a2660e01b6200018360201b60201c565b620000cb630e89341c60e01b6200018360201b60201c565b506000620000de620002a860201b60201c565b905080600460006101000a81548173ffffffffffffffffffffffffffffffffffffffff021916908373ffffffffffffffffffffffffffffffffffffffff1602179055508073ffffffffffffffffffffffffffffffffffffffff16600073ffffffffffffffffffffffffffffffffffffffff167f8be0079c531659141344cd1fd0a4f28419497f9722a3daafe3b4186f6b6457e060405160405180910390a35062000356565b63ffffffff60e01b817bffffffffffffffffffffffffffffffffffffffffffffffffffffffff1916141562000220576040517f08c379a000000000000000000000000000000000000000000000000000000000815260040180806020018281038252601c8152602001807f4552433136353a20696e76616c696420696e746572666163652069640000000081525060200191505060405180910390fd5b6001600080837bffffffffffffffffffffffffffffffffffffffffffffffffffffffff19167bffffffffffffffffffffffffffffffffffffffffffffffffffffffff1916815260200190815260200160002060006101000a81548160ff02191690831515021790555050565b8060039080519060200190620002a4929190620002b0565b5050565b600033905090565b828054600181600116156101000203166002900490600052602060002090601f016020900481019282601f10620002f357805160ff191683800117855562000324565b8280016001018555821562000324579182015b828111156200032357825182559160200191906001019062000306565b5b50905062000333919062000337565b5090565b5b808211156200035257600081600090555060010162000338565b5090565b615e7c80620003666000396000f3fe6080604052600436106101655760003560e01c80635d91889a116100d1578063a22cb4651161008a578063d2a55e3311610064578063d2a55e33146110a9578063e985e9c5146112c5578063f242432a1461134c578063f2fde38b1461146857610165565b8063a22cb46514610def578063a2fe5f6f14610e4c578063caae5f941461106857610165565b80635d91889a14610970578063715018a61461099b57806376cdf224146109b25780638b5f406614610c505780638da5cb5b14610c8b5780639a9dcd1e14610ccc57610165565b806331d9d60d1161012357806331d9d60d146105bd5780634b8ae8cd1461062e5780634e1273f41461067f5780634ed70f641461082d578063590743e51461089c578063592048851461090157610165565b8062fdd58e1461016a57806301ffc9a7146101d95780630e89341c146102495780631e5be179146102fd5780632088b2d8146103625780632eb2c2d61461038d575b600080fd5b34801561017657600080fd5b506101c36004803603604081101561018d57600080fd5b81019080803573ffffffffffffffffffffffffffffffffffffffff169060200190929190803590602001909291905050506114b9565b6040518082815260200191505060405180910390f35b3480156101e557600080fd5b50610231600480360360208110156101fc57600080fd5b8101908080357bffffffffffffffffffffffffffffffffffffffffffffffffffffffff19169060200190929190505050611599565b60405180821515815260200191505060405180910390f35b34801561025557600080fd5b506102826004803603602081101561026c57600080fd5b8101908080359060200190929190505050611600565b6040518080602001828103825283818151815260200191508051906020019080838360005b838110156102c25780820151818401526020810190506102a7565b50505050905090810190601f1680156102ef5780820380516001836020036101000a031916815260200191505b509250505060405180910390f35b34801561030957600080fd5b506103366004803603602081101561032057600080fd5b81019080803590602001909291905050506116a4565b604051808273ffffffffffffffffffffffffffffffffffffffff16815260200191505060405180910390f35b34801561036e57600080fd5b506103776116e0565b6040518082815260200191505060405180910390f35b34801561039957600080fd5b506105bb600480360360a08110156103b057600080fd5b81019080803573ffffffffffffffffffffffffffffffffffffffff169060200190929190803573ffffffffffffffffffffffffffffffffffffffff1690602001909291908035906020019064010000000081111561040d57600080fd5b82018360208201111561041f57600080fd5b8035906020019184602083028401116401000000008311171561044157600080fd5b919080806020026020016040519081016040528093929190818152602001838360200280828437600081840152601f19601f820116905080830192505050505050509192919290803590602001906401000000008111156104a157600080fd5b8201836020820111156104b357600080fd5b803590602001918460208302840111640100000000831117156104d557600080fd5b919080806020026020016040519081016040528093929190818152602001838360200280828437600081840152601f19601f8201169050808301925050505050505091929192908035906020019064010000000081111561053557600080fd5b82018360208201111561054757600080fd5b8035906020019184600183028401116401000000008311171561056957600080fd5b91908080601f016020809104026020016040519081016040528093929190818152602001838380828437600081840152601f19601f8201169050808301925050505050505091929192905050506116e6565b005b3480156105c957600080fd5b50610616600480360360408110156105e057600080fd5b81019080803573ffffffffffffffffffffffffffffffffffffffff16906020019092919080359060200190929190505050611b71565b60405180821515815260200191505060405180910390f35b34801561063a57600080fd5b506106676004803603602081101561065157600080fd5b8101908080359060200190929190505050612caa565b60405180821515815260200191505060405180910390f35b34801561068b57600080fd5b506107d6600480360360408110156106a257600080fd5b81019080803590602001906401000000008111156106bf57600080fd5b8201836020820111156106d157600080fd5b803590602001918460208302840111640100000000831117156106f357600080fd5b919080806020026020016040519081016040528093929190818152602001838360200280828437600081840152601f19601f8201169050808301925050505050505091929192908035906020019064010000000081111561075357600080fd5b82018360208201111561076557600080fd5b8035906020019184602083028401116401000000008311171561078757600080fd5b919080806020026020016040519081016040528093929190818152602001838360200280828437600081840152601f19601f820116905080830192505050505050509192919290505050612cca565b6040518080602001828103825283818151815260200191508051906020019060200280838360005b838110156108195780820151818401526020810190506107fe565b505050509050019250505060405180910390f35b34801561083957600080fd5b506108866004803603604081101561085057600080fd5b8101908080359060200190929190803573ffffffffffffffffffffffffffffffffffffffff169060200190929190505050612ddc565b6040518082815260200191505060405180910390f35b3480156108a857600080fd5b506108eb600480360360208110156108bf57600080fd5b81019080803573ffffffffffffffffffffffffffffffffffffffff169060200190929190505050612e01565b6040518082815260200191505060405180910390f35b34801561090d57600080fd5b5061095a6004803603604081101561092457600080fd5b8101908080359060200190929190803573ffffffffffffffffffffffffffffffffffffffff169060200190929190505050612e19565b6040518082815260200191505060405180910390f35b34801561097c57600080fd5b50610985612e3e565b6040518082815260200191505060405180910390f35b3480156109a757600080fd5b506109b0612e4b565b005b610c4e600480360360e08110156109c857600080fd5b81019080803590602001906401000000008111156109e557600080fd5b8201836020820111156109f757600080fd5b80359060200191846001830284011164010000000083111715610a1957600080fd5b91908080601f016020809104026020016040519081016040528093929190818152602001838380828437600081840152601f19601f82011690508083019250505050505050919291929080359060200190640100000000811115610a7c57600080fd5b820183602082011115610a8e57600080fd5b80359060200191846001830284011164010000000083111715610ab057600080fd5b91908080601f016020809104026020016040519081016040528093929190818152602001838380828437600081840152601f19601f8201169050808301925050505050505091929192908035906020019092919080359060200190640100000000811115610b1d57600080fd5b820183602082011115610b2f57600080fd5b80359060200191846001830284011164010000000083111715610b5157600080fd5b91908080601f016020809104026020016040519081016040528093929190818152602001838380828437600081840152601f19601f820116905080830192505050505050509192919290803590602001909291908035906020019092919080359060200190640100000000811115610bc857600080fd5b820183602082011115610bda57600080fd5b80359060200191846001830284011164010000000083111715610bfc57600080fd5b91908080601f016020809104026020016040519081016040528093929190818152602001838380828437600081840152601f19601f820116905080830192505050505050509192919290505050612fbb565b005b348015610c5c57600080fd5b50610c8960048036036020811015610c7357600080fd5b810190808035906020019092919050505061384e565b005b348015610c9757600080fd5b50610ca0613fbd565b604051808273ffffffffffffffffffffffffffffffffffffffff16815260200191505060405180910390f35b610dc3600480360360a0811015610ce257600080fd5b81019080803573ffffffffffffffffffffffffffffffffffffffff16906020019092919080359060200190929190803590602001909291908035906020019092919080359060200190640100000000811115610d3d57600080fd5b820183602082011115610d4f57600080fd5b80359060200191846001830284011164010000000083111715610d7157600080fd5b91908080601f016020809104026020016040519081016040528093929190818152602001838380828437600081840152601f19601f820116905080830192505050505050509192919290505050613fe7565b604051808273ffffffffffffffffffffffffffffffffffffffff16815260200191505060405180910390f35b348015610dfb57600080fd5b50610e4a60048036036040811015610e1257600080fd5b81019080803573ffffffffffffffffffffffffffffffffffffffff1690602001909291908035151590602001909291905050506141e9565b005b348015610e5857600080fd5b50610e8560048036036020811015610e6f57600080fd5b8101908080359060200190929190505050614382565b604051808773ffffffffffffffffffffffffffffffffffffffff1681526020018060200180602001806020018681526020018060200185810385528a818151815260200191508051906020019080838360005b83811015610ef3578082015181840152602081019050610ed8565b50505050905090810190601f168015610f205780820380516001836020036101000a031916815260200191505b50858103845289818151815260200191508051906020019080838360005b83811015610f59578082015181840152602081019050610f3e565b50505050905090810190601f168015610f865780820380516001836020036101000a031916815260200191505b50858103835288818151815260200191508051906020019080838360005b83811015610fbf578082015181840152602081019050610fa4565b50505050905090810190601f168015610fec5780820380516001836020036101000a031916815260200191505b50858103825286818151815260200191508051906020019080838360005b8381101561102557808201518184015260208101905061100a565b50505050905090810190601f1680156110525780820380516001836020036101000a031916815260200191505b509a505050505050505050505060405180910390f35b34801561107457600080fd5b5061107d61463e565b604051808273ffffffffffffffffffffffffffffffffffffffff16815260200191505060405180910390f35b3480156110b557600080fd5b506110e2600480360360208110156110cc57600080fd5b8101908080359060200190929190505050614664565b604051808773ffffffffffffffffffffffffffffffffffffffff1681526020018060200180602001806020018681526020018060200185810385528a818151815260200191508051906020019080838360005b83811015611150578082015181840152602081019050611135565b50505050905090810190601f16801561117d5780820380516001836020036101000a031916815260200191505b50858103845289818151815260200191508051906020019080838360005b838110156111b657808201518184015260208101905061119b565b50505050905090810190601f1680156111e35780820380516001836020036101000a031916815260200191505b50858103835288818151815260200191508051906020019080838360005b8381101561121c578082015181840152602081019050611201565b50505050905090810190601f1680156112495780820380516001836020036101000a031916815260200191505b50858103825286818151815260200191508051906020019080838360005b83811015611282578082015181840152602081019050611267565b50505050905090810190601f1680156112af5780820380516001836020036101000a031916815260200191505b509a505050505050505050505060405180910390f35b3480156112d157600080fd5b50611334600480360360408110156112e857600080fd5b81019080803573ffffffffffffffffffffffffffffffffffffffff169060200190929190803573ffffffffffffffffffffffffffffffffffffffff16906020019092919050505061492d565b60405180821515815260200191505060405180910390f35b34801561135857600080fd5b50611466600480360360a081101561136f57600080fd5b81019080803573ffffffffffffffffffffffffffffffffffffffff169060200190929190803573ffffffffffffffffffffffffffffffffffffffff1690602001909291908035906020019092919080359060200190929190803590602001906401000000008111156113e057600080fd5b8201836020820111156113f257600080fd5b8035906020019184600183028401116401000000008311171561141457600080fd5b91908080601f016020809104026020016040519081016040528093929190818152602001838380828437600081840152601f19601f8201169050808301925050505050505091929192905050506149c1565b005b34801561147457600080fd5b506114b76004803603602081101561148b57600080fd5b81019080803573ffffffffffffffffffffffffffffffffffffffff169060200190929190505050614d36565b005b60008073ffffffffffffffffffffffffffffffffffffffff168373ffffffffffffffffffffffffffffffffffffffff161415611540576040517f08c379a000000000000000000000000000000000000000000000000000000000815260040180806020018281038252602b815260200180615c39602b913960400191505060405180910390fd5b6001600083815260200190815260200160002060008473ffffffffffffffffffffffffffffffffffffffff1673ffffffffffffffffffffffffffffffffffffffff16815260200190815260200160002054905092915050565b6000806000837bffffffffffffffffffffffffffffffffffffffffffffffffffffffff19167bffffffffffffffffffffffffffffffffffffffffffffffffffffffff1916815260200190815260200160002060009054906101000a900460ff169050919050565b606060038054600181600116156101000203166002900480601f0160208091040260200160405190810160405280929190818152602001828054600181600116156101000203166002900480156116985780601f1061166d57610100808354040283529160200191611698565b820191906000526020600020905b81548152906001019060200180831161167b57829003601f168201915b50505050509050919050565b600a81815481106116b157fe5b906000526020600020016000915054906101000a900473ffffffffffffffffffffffffffffffffffffffff1681565b600c5481565b8151835114611740576040517f08c379a0000000000000000000000000000000000000000000000000000000008152600401808060200182810382526028815260200180615dfe6028913960400191505060405180910390fd5b600073ffffffffffffffffffffffffffffffffffffffff168473ffffffffffffffffffffffffffffffffffffffff1614156117c6576040517f08c379a0000000000000000000000000000000000000000000000000000000008152600401808060200182810382526025815260200180615cd76025913960400191505060405180910390fd5b6117ce614f2b565b73ffffffffffffffffffffffffffffffffffffffff168573ffffffffffffffffffffffffffffffffffffffff16148061181457506118138561180e614f2b565b61492d565b5b611869576040517f08c379a0000000000000000000000000000000000000000000000000000000008152600401808060200182810382526032815260200180615cfc6032913960400191505060405180910390fd5b6000611873614f2b565b9050611883818787878787614f33565b60005b8451811015611a5457600085828151811061189d57fe5b6020026020010151905060008583815181106118b557fe5b6020026020010151905061193c816040518060600160405280602a8152602001615d58602a91396001600086815260200190815260200160002060008d73ffffffffffffffffffffffffffffffffffffffff1673ffffffffffffffffffffffffffffffffffffffff16815260200190815260200160002054614f3b9092919063ffffffff16565b6001600084815260200190815260200160002060008b73ffffffffffffffffffffffffffffffffffffffff1673ffffffffffffffffffffffffffffffffffffffff168152602001908152602001600020819055506119f3816001600085815260200190815260200160002060008b73ffffffffffffffffffffffffffffffffffffffff1673ffffffffffffffffffffffffffffffffffffffff16815260200190815260200160002054614ff590919063ffffffff16565b6001600084815260200190815260200160002060008a73ffffffffffffffffffffffffffffffffffffffff1673ffffffffffffffffffffffffffffffffffffffff168152602001908152602001600020819055505050806001019050611886565b508473ffffffffffffffffffffffffffffffffffffffff168673ffffffffffffffffffffffffffffffffffffffff168273ffffffffffffffffffffffffffffffffffffffff167f4a39dc06d4c0dbc64b70af90fd698a233a518aa5d07e595d983b8c0526c8f7fb8787604051808060200180602001838103835285818151815260200191508051906020019060200280838360005b83811015611b04578082015181840152602081019050611ae9565b50505050905001838103825284818151815260200191508051906020019060200280838360005b83811015611b46578082015181840152602081019050611b2b565b5050505090500194505050505060405180910390a4611b6981878787878761507d565b505050505050565b6000611b7b61599f565b600760008481526020019081526020016000206040518060c00160405290816000820160009054906101000a900473ffffffffffffffffffffffffffffffffffffffff1673ffffffffffffffffffffffffffffffffffffffff1673ffffffffffffffffffffffffffffffffffffffff168152602001600182018054600181600116156101000203166002900480601f016020809104026020016040519081016040528092919081815260200182805460018160011615610100020316600290048015611c885780601f10611c5d57610100808354040283529160200191611c88565b820191906000526020600020905b815481529060010190602001808311611c6b57829003601f168201915b50505050508152602001600282018054600181600116156101000203166002900480601f016020809104026020016040519081016040528092919081815260200182805460018160011615610100020316600290048015611d2a5780601f10611cff57610100808354040283529160200191611d2a565b820191906000526020600020905b815481529060010190602001808311611d0d57829003601f168201915b50505050508152602001600382018054600181600116156101000203166002900480601f016020809104026020016040519081016040528092919081815260200182805460018160011615610100020316600290048015611dcc5780601f10611da157610100808354040283529160200191611dcc565b820191906000526020600020905b815481529060010190602001808311611daf57829003601f168201915b5050505050815260200160048201548152602001600582018054600181600116156101000203166002900480601f016020809104026020016040519081016040528092919081815260200182805460018160011615610100020316600290048015611e785780601f10611e4d57610100808354040283529160200191611e78565b820191906000526020600020905b815481529060010190602001808311611e5b57829003601f168201915b50505050508152505090508060a0015180602001905160c0811015611e9c57600080fd5b810190808051906020019092919080516040519392919084640100000000821115611ec657600080fd5b83820191506020820185811115611edc57600080fd5b8251866001820283011164010000000082111715611ef957600080fd5b8083526020830192505050908051906020019080838360005b83811015611f2d578082015181840152602081019050611f12565b50505050905090810190601f168015611f5a5780820380516001836020036101000a031916815260200191505b5060405260200180519060200190929190805190602001909291908051906020019092919080516040519392919084640100000000821115611f9b57600080fd5b83820191506020820185811115611fb157600080fd5b8251866001820283011164010000000082111715611fce57600080fd5b8083526020830192505050908051906020019080838360005b83811015612002578082015181840152602081019050611fe7565b50505050905090810190601f16801561202f5780820380516001836020036101000a031916815260200191505b50604052505050600d6000600e6000600f60006010600060116000601260008c91905090805190602001906120659291906159eb565b508b919050558a91905055899190505588919050908051906020019061208c9291906159eb565b508791905055505050505050600d54600e600f546010546002601260405160200180878152602001806020018681526020018581526020018481526020018060200183810383528881815460018160011615610100020316600290048152602001915080546001816001161561010002031660029004801561214f5780601f106121245761010080835404028352916020019161214f565b820191906000526020600020905b81548152906001019060200180831161213257829003601f168201915b50508381038252848181546001816001161561010002031660029004815260200191508054600181600116156101000203166002900480156121d25780601f106121a7576101008083540402835291602001916121d2565b820191906000526020600020905b8154815290600101906020018083116121b557829003601f168201915b5050985050505050505050506040516020818303038152906040528160a00181905250806007600085815260200190815260200160002060008201518160000160006101000a81548173ffffffffffffffffffffffffffffffffffffffff021916908373ffffffffffffffffffffffffffffffffffffffff160217905550602082015181600101908051906020019061226c929190615a6b565b5060408201518160020190805190602001906122899291906159eb565b5060608201518160030190805190602001906122a69291906159eb565b506080820151816004015560a08201518160050190805190602001906122cd929190615a6b565b509050506000600c5414612c32576122e361599f565b60076000600c5481526020019081526020016000206040518060c00160405290816000820160009054906101000a900473ffffffffffffffffffffffffffffffffffffffff1673ffffffffffffffffffffffffffffffffffffffff1673ffffffffffffffffffffffffffffffffffffffff168152602001600182018054600181600116156101000203166002900480601f0160208091040260200160405190810160405280929190818152602001828054600181600116156101000203166002900480156123f25780601f106123c7576101008083540402835291602001916123f2565b820191906000526020600020905b8154815290600101906020018083116123d557829003601f168201915b50505050508152602001600282018054600181600116156101000203166002900480601f0160208091040260200160405190810160405280929190818152602001828054600181600116156101000203166002900480156124945780601f1061246957610100808354040283529160200191612494565b820191906000526020600020905b81548152906001019060200180831161247757829003601f168201915b50505050508152602001600382018054600181600116156101000203166002900480601f0160208091040260200160405190810160405280929190818152602001828054600181600116156101000203166002900480156125365780601f1061250b57610100808354040283529160200191612536565b820191906000526020600020905b81548152906001019060200180831161251957829003601f168201915b5050505050815260200160048201548152602001600582018054600181600116156101000203166002900480601f0160208091040260200160405190810160405280929190818152602001828054600181600116156101000203166002900480156125e25780601f106125b7576101008083540402835291602001916125e2565b820191906000526020600020905b8154815290600101906020018083116125c557829003601f168201915b50505050508152505090508060a0015180602001905160c081101561260657600080fd5b81019080805190602001909291908051604051939291908464010000000082111561263057600080fd5b8382019150602082018581111561264657600080fd5b825186600182028301116401000000008211171561266357600080fd5b8083526020830192505050908051906020019080838360005b8381101561269757808201518184015260208101905061267c565b50505050905090810190601f1680156126c45780820380516001836020036101000a031916815260200191505b506040526020018051906020019092919080519060200190929190805190602001909291908051604051939291908464010000000082111561270557600080fd5b8382019150602082018581111561271b57600080fd5b825186600182028301116401000000008211171561273857600080fd5b8083526020830192505050908051906020019080838360005b8381101561276c578082015181840152602081019050612751565b50505050905090810190601f1680156127995780820380516001836020036101000a031916815260200191505b506040525050506013600060146000601560006016600060176000601860008c91905090805190602001906127cf9291906159eb565b508b919050558a9190505589919050558891905090805190602001906127f69291906159eb565b50879190505550505050505061157c60135460155402036019819055506000600190505b600a805490508111612932576000600a828154811061283557fe5b9060005260206000200160009054906101000a900473ffffffffffffffffffffffffffffffffffffffff169050600061287082600c546114b9565b9050600060165482026019548161288357fe5b04905080601a60008a815260200190815260200160002060008573ffffffffffffffffffffffffffffffffffffffff1673ffffffffffffffffffffffffffffffffffffffff168152602001908152602001600020819055508273ffffffffffffffffffffffffffffffffffffffff166108fc829081150290604051600060405180830381858888f19350505050158015612921573d6000803e3d6000fd5b50505050808060010191505061281a565b50601654601354026019548161294457fe5b04601a600086815260200190815260200160002060008773ffffffffffffffffffffffffffffffffffffffff1673ffffffffffffffffffffffffffffffffffffffff168152602001908152602001600020819055508473ffffffffffffffffffffffffffffffffffffffff166108fc60165460135402601954816129c457fe5b049081150290604051600060405180830381858888f193505050501580156129f0573d6000803e3d6000fd5b50601354601460155460165460046018604051602001808781526020018060200186815260200185815260200184815260200180602001838103835288818154600181600116156101000203166002900481526020019150805460018160011615610100020316600290048015612aa85780601f10612a7d57610100808354040283529160200191612aa8565b820191906000526020600020905b815481529060010190602001808311612a8b57829003601f168201915b5050838103825284818154600181600116156101000203166002900481526020019150805460018160011615610100020316600290048015612b2b5780601f10612b0057610100808354040283529160200191612b2b565b820191906000526020600020905b815481529060010190602001808311612b0e57829003601f168201915b5050985050505050505050506040516020818303038152906040528160a001819052508060076000600c54815260200190815260200160002060008201518160000160006101000a81548173ffffffffffffffffffffffffffffffffffffffff021916908373ffffffffffffffffffffffffffffffffffffffff1602179055506020820151816001019080519060200190612bc7929190615a6b565b506040820151816002019080519060200190612be49291906159eb565b506060820151816003019080519060200190612c019291906159eb565b506080820151816004015560a0820151816005019080519060200190612c28929190615a6b565b5090505050612c9f565b600061157c600f54600d540203905080601a600086815260200190815260200160002060008773ffffffffffffffffffffffffffffffffffffffff1673ffffffffffffffffffffffffffffffffffffffff1681526020019081526020016000208190555083600c81905550505b600191505092915050565b60056020528060005260406000206000915054906101000a900460ff1681565b60608151835114612d26576040517f08c379a0000000000000000000000000000000000000000000000000000000008152600401808060200182810382526029815260200180615dd56029913960400191505060405180910390fd5b6060835167ffffffffffffffff81118015612d4057600080fd5b50604051908082528060200260200182016040528015612d6f5781602001602082028036833780820191505090505b50905060005b8451811015612dd157612dae858281518110612d8d57fe5b6020026020010151858381518110612da157fe5b60200260200101516114b9565b828281518110612dba57fe5b602002602001018181525050806001019050612d75565b508091505092915050565b601a602052816000526040600020602052806000526040600020600091509150505481565b60066020528060005260406000206000915090505481565b6009602052816000526040600020602052806000526040600020600091509150505481565b6000600b80549050905090565b612e53614f2b565b73ffffffffffffffffffffffffffffffffffffffff16612e71613fbd565b73ffffffffffffffffffffffffffffffffffffffff1614612efa576040517f08c379a00000000000000000000000000000000000000000000000000000000081526004018080602001828103825260208152602001807f4f776e61626c653a2063616c6c6572206973206e6f7420746865206f776e657281525060200191505060405180910390fd5b600073ffffffffffffffffffffffffffffffffffffffff16600460009054906101000a900473ffffffffffffffffffffffffffffffffffffffff1673ffffffffffffffffffffffffffffffffffffffff167f8be0079c531659141344cd1fd0a4f28419497f9722a3daafe3b4186f6b6457e060405160405180910390a36000600460006101000a81548173ffffffffffffffffffffffffffffffffffffffff021916908373ffffffffffffffffffffffffffffffffffffffff160217905550565b600860009054906101000a900473ffffffffffffffffffffffffffffffffffffffff1673ffffffffffffffffffffffffffffffffffffffff166108fc349081150290604051600060405180830381858888f19350505050158015613023573d6000803e3d6000fd5b506000662386f26fc1000090506000886040516020018082805190602001908083835b602083106130695780518252602082019150602081019050602083039250613046565b6001836020036101000a0380198251168184511680821785525050505050509050019150506040516020818303038152906040528051906020012060001c905060008282816130b457fe5b0690506005600082815260200190815260200160002060009054906101000a900460ff161561314b576040517f08c379a00000000000000000000000000000000000000000000000000000000081526004018080602001828103825260208152602001807f4572723a205069636b206120556e6971756520456e646561766f72204e616d6581525060200191505060405180910390fd5b60016005600083815260200190815260200160002060006101000a81548160ff02191690831515021790555061317f61599f565b33816000019073ffffffffffffffffffffffffffffffffffffffff16908173ffffffffffffffffffffffffffffffffffffffff16815250508a81604001819052508981606001819052508181608001818152505060608a8360405160200180806020018060200184815260200180602001848103845286818151815260200191508051906020019080838360005b8381101561322857808201518184015260208101905061320d565b50505050905090810190601f1680156132555780820380516001836020036101000a031916815260200191505b50848103835260018152602001807f2f00000000000000000000000000000000000000000000000000000000000000815250602001848103825260058152602001807f2e6a736f6e00000000000000000000000000000000000000000000000000000081525060200195505050505050604051602081830303815290604052905080826020018190525060608a8a8a8a60018b604051602001808781526020018060200186815260200185815260200184815260200180602001838103835288818151815260200191508051906020019080838360005b8381101561334757808201518184015260208101905061332c565b50505050905090810190601f1680156133745780820380516001836020036101000a031916815260200191505b50838103825284818151815260200191508051906020019080838360005b838110156133ad578082015181840152602081019050613392565b50505050905090810190601f1680156133da5780820380516001836020036101000a031916815260200191505b50985050505050505050506040516020818303038152906040529050808360a00181905250600b83908060018154018082558091505060019003906000526020600020906006020160009091909190915060008201518160000160006101000a81548173ffffffffffffffffffffffffffffffffffffffff021916908373ffffffffffffffffffffffffffffffffffffffff160217905550602082015181600101908051906020019061348e929190615a6b565b5060408201518160020190805190602001906134ab9291906159eb565b5060608201518160030190805190602001906134c89291906159eb565b506080820151816004015560a08201518160050190805190602001906134ef929190615a6b565b50505083600660003373ffffffffffffffffffffffffffffffffffffffff1673ffffffffffffffffffffffffffffffffffffffff16815260200190815260200160002081905550826007600086815260200190815260200160002060008201518160000160006101000a81548173ffffffffffffffffffffffffffffffffffffffff021916908373ffffffffffffffffffffffffffffffffffffffff16021790555060208201518160010190805190602001906135ad929190615a6b565b5060408201518160020190805190602001906135ca9291906159eb565b5060608201518160030190805190602001906135e79291906159eb565b506080820151816004015560a082015181600501908051906020019061360e929190615a6b565b5090505061361e33858d8461540c565b7fe4db4d9bae6a7ea1c8f58bae49da45e3112df950e97a0b718e738b109807232e836000015184602001518560400151866060015187608001518860a00151604051808773ffffffffffffffffffffffffffffffffffffffff1681526020018060200180602001806020018681526020018060200185810385528a818151815260200191508051906020019080838360005b838110156136cb5780820151818401526020810190506136b0565b50505050905090810190601f1680156136f85780820380516001836020036101000a031916815260200191505b50858103845289818151815260200191508051906020019080838360005b83811015613731578082015181840152602081019050613716565b50505050905090810190601f16801561375e5780820380516001836020036101000a031916815260200191505b50858103835288818151815260200191508051906020019080838360005b8381101561379757808201518184015260208101905061377c565b50505050905090810190601f1680156137c45780820380516001836020036101000a031916815260200191505b50858103825286818151815260200191508051906020019080838360005b838110156137fd5780820151818401526020810190506137e2565b50505050905090810190601f16801561382a5780820380516001836020036101000a031916815260200191505b509a505050505050505050505060405180910390a150505050505050505050505050565b61385661599f565b600760008381526020019081526020016000206040518060c00160405290816000820160009054906101000a900473ffffffffffffffffffffffffffffffffffffffff1673ffffffffffffffffffffffffffffffffffffffff1673ffffffffffffffffffffffffffffffffffffffff168152602001600182018054600181600116156101000203166002900480601f0160208091040260200160405190810160405280929190818152602001828054600181600116156101000203166002900480156139635780601f1061393857610100808354040283529160200191613963565b820191906000526020600020905b81548152906001019060200180831161394657829003601f168201915b50505050508152602001600282018054600181600116156101000203166002900480601f016020809104026020016040519081016040528092919081815260200182805460018160011615610100020316600290048015613a055780601f106139da57610100808354040283529160200191613a05565b820191906000526020600020905b8154815290600101906020018083116139e857829003601f168201915b50505050508152602001600382018054600181600116156101000203166002900480601f016020809104026020016040519081016040528092919081815260200182805460018160011615610100020316600290048015613aa75780601f10613a7c57610100808354040283529160200191613aa7565b820191906000526020600020905b815481529060010190602001808311613a8a57829003601f168201915b5050505050815260200160048201548152602001600582018054600181600116156101000203166002900480601f016020809104026020016040519081016040528092919081815260200182805460018160011615610100020316600290048015613b535780601f10613b2857610100808354040283529160200191613b53565b820191906000526020600020905b815481529060010190602001808311613b3657829003601f168201915b5050505050815250509050806000015173ffffffffffffffffffffffffffffffffffffffff163373ffffffffffffffffffffffffffffffffffffffff1614613be6576040517f08c379a0000000000000000000000000000000000000000000000000000000008152600401808060200182810382526024815260200180615c8a6024913960400191505060405180910390fd5b60006060600080600060608660a0015180602001905160c0811015613c0a57600080fd5b810190808051906020019092919080516040519392919084640100000000821115613c3457600080fd5b83820191506020820185811115613c4a57600080fd5b8251866001820283011164010000000082111715613c6757600080fd5b8083526020830192505050908051906020019080838360005b83811015613c9b578082015181840152602081019050613c80565b50505050905090810190601f168015613cc85780820380516001836020036101000a031916815260200191505b5060405260200180519060200190929190805190602001909291908051906020019092919080516040519392919084640100000000821115613d0957600080fd5b83820191506020820185811115613d1f57600080fd5b8251866001820283011164010000000082111715613d3c57600080fd5b8083526020830192505050908051906020019080838360005b83811015613d70578082015181840152602081019050613d55565b50505050905090810190601f168015613d9d5780820380516001836020036101000a031916815260200191505b50604052505050809650819750829850839950849a50859b5050505050505085858585600385604051602001808781526020018060200186815260200185815260200184815260200180602001838103835288818151815260200191508051906020019080838360005b83811015613e22578082015181840152602081019050613e07565b50505050905090810190601f168015613e4f5780820380516001836020036101000a031916815260200191505b50838103825284818151815260200191508051906020019080838360005b83811015613e88578082015181840152602081019050613e6d565b50505050905090810190601f168015613eb55780820380516001836020036101000a031916815260200191505b50985050505050505050506040516020818303038152906040528760a0018190525086600760008a815260200190815260200160002060008201518160000160006101000a81548173ffffffffffffffffffffffffffffffffffffffff021916908373ffffffffffffffffffffffffffffffffffffffff1602179055506020820151816001019080519060200190613f4e929190615a6b565b506040820151816002019080519060200190613f6b9291906159eb565b506060820151816003019080519060200190613f889291906159eb565b506080820151816004015560a0820151816005019080519060200190613faf929190615a6b565b509050505050505050505050565b6000600460009054906101000a900473ffffffffffffffffffffffffffffffffffffffff16905090565b6000838302341015614044576040517f08c379a000000000000000000000000000000000000000000000000000000000815260040180806020018281038252602a815260200180615d2e602a913960400191505060405180910390fd5b8361404f87876114b9565b10156140a6576040517f08c379a000000000000000000000000000000000000000000000000000000000815260040180806020018281038252602a815260200180615d82602a913960400191505060405180910390fd5b600860009054906101000a900473ffffffffffffffffffffffffffffffffffffffff1673ffffffffffffffffffffffffffffffffffffffff166108fc349081150290604051600060405180830381858888f1935050505015801561410e573d6000803e3d6000fd5b5061411c86338787866149c1565b836009600087815260200190815260200160002060003373ffffffffffffffffffffffffffffffffffffffff1673ffffffffffffffffffffffffffffffffffffffff16815260200190815260200160002060008282540192505081905550600a339080600181540180825580915050600190039060005260206000200160009091909190916101000a81548173ffffffffffffffffffffffffffffffffffffffff021916908373ffffffffffffffffffffffffffffffffffffffff16021790555033905095945050505050565b8173ffffffffffffffffffffffffffffffffffffffff16614208614f2b565b73ffffffffffffffffffffffffffffffffffffffff161415614275576040517f08c379a0000000000000000000000000000000000000000000000000000000008152600401808060200182810382526029815260200180615dac6029913960400191505060405180910390fd5b8060026000614282614f2b565b73ffffffffffffffffffffffffffffffffffffffff1673ffffffffffffffffffffffffffffffffffffffff16815260200190815260200160002060008473ffffffffffffffffffffffffffffffffffffffff1673ffffffffffffffffffffffffffffffffffffffff16815260200190815260200160002060006101000a81548160ff0219169083151502179055508173ffffffffffffffffffffffffffffffffffffffff1661432f614f2b565b73ffffffffffffffffffffffffffffffffffffffff167f17307eab39ab6107e8899845ad3d59bd9653f200f220920489ca2b5937696c318360405180821515815260200191505060405180910390a35050565b60076020528060005260406000206000915090508060000160009054906101000a900473ffffffffffffffffffffffffffffffffffffffff1690806001018054600181600116156101000203166002900480601f0160208091040260200160405190810160405280929190818152602001828054600181600116156101000203166002900480156144545780601f1061442957610100808354040283529160200191614454565b820191906000526020600020905b81548152906001019060200180831161443757829003601f168201915b505050505090806002018054600181600116156101000203166002900480601f0160208091040260200160405190810160405280929190818152602001828054600181600116156101000203166002900480156144f25780601f106144c7576101008083540402835291602001916144f2565b820191906000526020600020905b8154815290600101906020018083116144d557829003601f168201915b505050505090806003018054600181600116156101000203166002900480601f0160208091040260200160405190810160405280929190818152602001828054600181600116156101000203166002900480156145905780601f1061456557610100808354040283529160200191614590565b820191906000526020600020905b81548152906001019060200180831161457357829003601f168201915b505050505090806004015490806005018054600181600116156101000203166002900480601f0160208091040260200160405190810160405280929190818152602001828054600181600116156101000203166002900480156146345780601f1061460957610100808354040283529160200191614634565b820191906000526020600020905b81548152906001019060200180831161461757829003601f168201915b5050505050905086565b600860009054906101000a900473ffffffffffffffffffffffffffffffffffffffff1681565b600b818154811061467157fe5b90600052602060002090600602016000915090508060000160009054906101000a900473ffffffffffffffffffffffffffffffffffffffff1690806001018054600181600116156101000203166002900480601f0160208091040260200160405190810160405280929190818152602001828054600181600116156101000203166002900480156147435780601f1061471857610100808354040283529160200191614743565b820191906000526020600020905b81548152906001019060200180831161472657829003601f168201915b505050505090806002018054600181600116156101000203166002900480601f0160208091040260200160405190810160405280929190818152602001828054600181600116156101000203166002900480156147e15780601f106147b6576101008083540402835291602001916147e1565b820191906000526020600020905b8154815290600101906020018083116147c457829003601f168201915b505050505090806003018054600181600116156101000203166002900480601f01602080910402602001604051908101604052809291908181526020018280546001816001161561010002031660029004801561487f5780601f106148545761010080835404028352916020019161487f565b820191906000526020600020905b81548152906001019060200180831161486257829003601f168201915b505050505090806004015490806005018054600181600116156101000203166002900480601f0160208091040260200160405190810160405280929190818152602001828054600181600116156101000203166002900480156149235780601f106148f857610100808354040283529160200191614923565b820191906000526020600020905b81548152906001019060200180831161490657829003601f168201915b5050505050905086565b6000600260008473ffffffffffffffffffffffffffffffffffffffff1673ffffffffffffffffffffffffffffffffffffffff16815260200190815260200160002060008373ffffffffffffffffffffffffffffffffffffffff1673ffffffffffffffffffffffffffffffffffffffff16815260200190815260200160002060009054906101000a900460ff16905092915050565b600073ffffffffffffffffffffffffffffffffffffffff168473ffffffffffffffffffffffffffffffffffffffff161415614a47576040517f08c379a0000000000000000000000000000000000000000000000000000000008152600401808060200182810382526025815260200180615cd76025913960400191505060405180910390fd5b614a4f614f2b565b73ffffffffffffffffffffffffffffffffffffffff168573ffffffffffffffffffffffffffffffffffffffff161480614a955750614a9485614a8f614f2b565b61492d565b5b614aea576040517f08c379a0000000000000000000000000000000000000000000000000000000008152600401808060200182810382526029815260200180615cae6029913960400191505060405180910390fd5b6000614af4614f2b565b9050614b14818787614b058861560f565b614b0e8861560f565b87614f33565b614b91836040518060600160405280602a8152602001615d58602a91396001600088815260200190815260200160002060008a73ffffffffffffffffffffffffffffffffffffffff1673ffffffffffffffffffffffffffffffffffffffff16815260200190815260200160002054614f3b9092919063ffffffff16565b6001600086815260200190815260200160002060008873ffffffffffffffffffffffffffffffffffffffff1673ffffffffffffffffffffffffffffffffffffffff16815260200190815260200160002081905550614c48836001600087815260200190815260200160002060008873ffffffffffffffffffffffffffffffffffffffff1673ffffffffffffffffffffffffffffffffffffffff16815260200190815260200160002054614ff590919063ffffffff16565b6001600086815260200190815260200160002060008773ffffffffffffffffffffffffffffffffffffffff1673ffffffffffffffffffffffffffffffffffffffff168152602001908152602001600020819055508473ffffffffffffffffffffffffffffffffffffffff168673ffffffffffffffffffffffffffffffffffffffff168273ffffffffffffffffffffffffffffffffffffffff167fc3d58168c5ae7397731d063d5bbf3d657854427343f4c083240f7aacaa2d0f628787604051808381526020018281526020019250505060405180910390a4614d2e81878787878761567f565b505050505050565b614d3e614f2b565b73ffffffffffffffffffffffffffffffffffffffff16614d5c613fbd565b73ffffffffffffffffffffffffffffffffffffffff1614614de5576040517f08c379a00000000000000000000000000000000000000000000000000000000081526004018080602001828103825260208152602001807f4f776e61626c653a2063616c6c6572206973206e6f7420746865206f776e657281525060200191505060405180910390fd5b600073ffffffffffffffffffffffffffffffffffffffff168173ffffffffffffffffffffffffffffffffffffffff161415614e6b576040517f08c379a0000000000000000000000000000000000000000000000000000000008152600401808060200182810382526026815260200180615c646026913960400191505060405180910390fd5b8073ffffffffffffffffffffffffffffffffffffffff16600460009054906101000a900473ffffffffffffffffffffffffffffffffffffffff1673ffffffffffffffffffffffffffffffffffffffff167f8be0079c531659141344cd1fd0a4f28419497f9722a3daafe3b4186f6b6457e060405160405180910390a380600460006101000a81548173ffffffffffffffffffffffffffffffffffffffff021916908373ffffffffffffffffffffffffffffffffffffffff16021790555050565b600033905090565b505050505050565b6000838311158290614fe8576040517f08c379a00000000000000000000000000000000000000000000000000000000081526004018080602001828103825283818151815260200191508051906020019080838360005b83811015614fad578082015181840152602081019050614f92565b50505050905090810190601f168015614fda5780820380516001836020036101000a031916815260200191505b509250505060405180910390fd5b5082840390509392505050565b600080828401905083811015615073576040517f08c379a000000000000000000000000000000000000000000000000000000000815260040180806020018281038252601b8152602001807f536166654d6174683a206164646974696f6e206f766572666c6f77000000000081525060200191505060405180910390fd5b8091505092915050565b61509c8473ffffffffffffffffffffffffffffffffffffffff1661598c565b15615404578373ffffffffffffffffffffffffffffffffffffffff1663bc197c8187878686866040518663ffffffff1660e01b8152600401808673ffffffffffffffffffffffffffffffffffffffff1681526020018573ffffffffffffffffffffffffffffffffffffffff168152602001806020018060200180602001848103845287818151815260200191508051906020019060200280838360005b83811015615154578082015181840152602081019050615139565b50505050905001848103835286818151815260200191508051906020019060200280838360005b8381101561519657808201518184015260208101905061517b565b50505050905001848103825285818151815260200191508051906020019080838360005b838110156151d55780820151818401526020810190506151ba565b50505050905090810190601f1680156152025780820380516001836020036101000a031916815260200191505b5098505050505050505050602060405180830381600087803b15801561522757600080fd5b505af192505050801561525b57506040513d602081101561524757600080fd5b810190808051906020019092919050505060015b61536557615267615b26565b806152725750615314565b806040517f08c379a00000000000000000000000000000000000000000000000000000000081526004018080602001828103825283818151815260200191508051906020019080838360005b838110156152d95780820151818401526020810190506152be565b50505050905090810190601f1680156153065780820380516001836020036101000a031916815260200191505b509250505060405180910390fd5b6040517f08c379a0000000000000000000000000000000000000000000000000000000008152600401808060200182810382526034815260200180615bdd6034913960400191505060405180910390fd5b63bc197c8160e01b7bffffffffffffffffffffffffffffffffffffffffffffffffffffffff1916817bffffffffffffffffffffffffffffffffffffffffffffffffffffffff191614615402576040517f08c379a0000000000000000000000000000000000000000000000000000000008152600401808060200182810382526028815260200180615c116028913960400191505060405180910390fd5b505b505050505050565b600073ffffffffffffffffffffffffffffffffffffffff168473ffffffffffffffffffffffffffffffffffffffff161415615492576040517f08c379a0000000000000000000000000000000000000000000000000000000008152600401808060200182810382526021815260200180615e266021913960400191505060405180910390fd5b600061549c614f2b565b90506154bd816000876154ae8861560f565b6154b78861560f565b87614f33565b615520836001600087815260200190815260200160002060008873ffffffffffffffffffffffffffffffffffffffff1673ffffffffffffffffffffffffffffffffffffffff16815260200190815260200160002054614ff590919063ffffffff16565b6001600086815260200190815260200160002060008773ffffffffffffffffffffffffffffffffffffffff1673ffffffffffffffffffffffffffffffffffffffff168152602001908152602001600020819055508473ffffffffffffffffffffffffffffffffffffffff16600073ffffffffffffffffffffffffffffffffffffffff168273ffffffffffffffffffffffffffffffffffffffff167fc3d58168c5ae7397731d063d5bbf3d657854427343f4c083240f7aacaa2d0f628787604051808381526020018281526020019250505060405180910390a46156088160008787878761567f565b5050505050565b606080600167ffffffffffffffff8111801561562a57600080fd5b506040519080825280602002602001820160405280156156595781602001602082028036833780820191505090505b509050828160008151811061566a57fe5b60200260200101818152505080915050919050565b61569e8473ffffffffffffffffffffffffffffffffffffffff1661598c565b15615984578373ffffffffffffffffffffffffffffffffffffffff1663f23a6e6187878686866040518663ffffffff1660e01b8152600401808673ffffffffffffffffffffffffffffffffffffffff1681526020018573ffffffffffffffffffffffffffffffffffffffff16815260200184815260200183815260200180602001828103825283818151815260200191508051906020019080838360005b8381101561575757808201518184015260208101905061573c565b50505050905090810190601f1680156157845780820380516001836020036101000a031916815260200191505b509650505050505050602060405180830381600087803b1580156157a757600080fd5b505af19250505080156157db57506040513d60208110156157c757600080fd5b810190808051906020019092919050505060015b6158e5576157e7615b26565b806157f25750615894565b806040517f08c379a00000000000000000000000000000000000000000000000000000000081526004018080602001828103825283818151815260200191508051906020019080838360005b8381101561585957808201518184015260208101905061583e565b50505050905090810190601f1680156158865780820380516001836020036101000a031916815260200191505b509250505060405180910390fd5b6040517f08c379a0000000000000000000000000000000000000000000000000000000008152600401808060200182810382526034815260200180615bdd6034913960400191505060405180910390fd5b63f23a6e6160e01b7bffffffffffffffffffffffffffffffffffffffffffffffffffffffff1916817bffffffffffffffffffffffffffffffffffffffffffffffffffffffff191614615982576040517f08c379a0000000000000000000000000000000000000000000000000000000008152600401808060200182810382526028815260200180615c116028913960400191505060405180910390fd5b505b505050505050565b600080823b905060008111915050919050565b6040518060c00160405280600073ffffffffffffffffffffffffffffffffffffffff16815260200160608152602001606081526020016060815260200160008152602001606081525090565b828054600181600116156101000203166002900490600052602060002090601f016020900481019282601f10615a2c57805160ff1916838001178555615a5a565b82800160010185558215615a5a579182015b82811115615a59578251825591602001919060010190615a3e565b5b509050615a679190615aeb565b5090565b828054600181600116156101000203166002900490600052602060002090601f016020900481019282601f10615aac57805160ff1916838001178555615ada565b82800160010185558215615ada579182015b82811115615ad9578251825591602001919060010190615abe565b5b509050615ae79190615aeb565b5090565b5b80821115615b04576000816000905550600101615aec565b5090565b6000601f19601f8301169050919050565b60008160e01c9050919050565b600060443d1015615b3657615bd9565b60046000803e615b47600051615b19565b6308c379a08114615b585750615bd9565b60405160043d036004823e80513d602482011167ffffffffffffffff82111715615b8457505050615bd9565b808201805167ffffffffffffffff811115615ba3575050505050615bd9565b8060208301013d8501811115615bbe57505050505050615bd9565b615bc782615b08565b60208401016040528296505050505050505b9056fe455243313135353a207472616e7366657220746f206e6f6e2045524331313535526563656976657220696d706c656d656e746572455243313135353a204552433131353552656365697665722072656a656374656420746f6b656e73455243313135353a2062616c616e636520717565727920666f7220746865207a65726f20616464726573734f776e61626c653a206e6577206f776e657220697320746865207a65726f20616464726573734572723a204d757374206f776e20746f6b656e20746f206368616e676520737461747573455243313135353a2063616c6c6572206973206e6f74206f776e6572206e6f7220617070726f766564455243313135353a207472616e7366657220746f20746865207a65726f2061646472657373455243313135353a207472616e736665722063616c6c6572206973206e6f74206f776e6572206e6f7220617070726f7665644572723a206e6f7420656e6f756768206574682073656e742c204e6f20536f757020466f7220596f7521455243313135353a20696e73756666696369656e742062616c616e636520666f72207472616e736665724572723a206e6f7420656e6f75676820746f6b656e7320746f2066696c6c20796f7572206f7264657221455243313135353a2073657474696e6720617070726f76616c2073746174757320666f722073656c66455243313135353a206163636f756e747320616e6420696473206c656e677468206d69736d61746368455243313135353a2069647320616e6420616d6f756e7473206c656e677468206d69736d61746368455243313135353a206d696e7420746f20746865207a65726f2061646472657373a2646970667358221220cbbf1144e190fb7070da899e0fd70d292c6151beb7d0b6e0f072719b44a127ba64736f6c634300060c0033687474703a2f2f6c6f63616c686f73743a333030302f7075626c69632f23212f74726561737572655f63686573742f7b69647d2e6a736f6e",
  "immutableReferences": {},
  "source": "pragma solidity >=0.4.21 <0.7.0;\nimport \"./AngelToken.sol\";\n\ncontract AT_X is AngelToken {\n  uint256 public last_rnd_id = 0;\n  uint256 ca_num_to_issue;\n  string ca_mint_date;\n  uint256 ca_cost;\n  uint256 ca_angel_coefficient;\n  uint256 ca_status;\n  string ca_product;\n  uint256 la_num_to_issue;\n  string la_mint_date;\n  uint256 la_cost;\n  uint256 la_angel_coefficient;\n  uint256 la_status;\n  string la_product;\n  uint256 _total_angels_share;\n  mapping(uint256 => mapping(address => uint256)) public map_angel_to_payout;\n\n  constructor()\n   AngelToken()\n    public {}\n\n  function crowdfund_execution(address payable _owner, uint256 _id) public returns(bool executed){\n    // require(balanceOf(_owner, _id) == 0, \"Err: not all tokens of that series are sold yet!\");\n    //fetch the current alm and change its status\n    Alms.Alm memory cur_alm = map_id_to_Alm[_id];\n    (ca_num_to_issue, ca_mint_date, ca_cost, ca_angel_coefficient, ca_status, ca_product) = abi.decode(cur_alm.mint_data,(uint256, string, uint256, uint256, uint256, string));\n    //change status on tokens to 'executed' & reencode\n    cur_alm.mint_data = abi.encode(ca_num_to_issue, ca_mint_date, ca_cost, ca_angel_coefficient, 2, ca_product);\n    map_id_to_Alm[_id] = cur_alm;\n    if(last_rnd_id != 0){\n      //fetch the last alm to get payout details\n      Alms.Alm memory last_alm = map_id_to_Alm[last_rnd_id];\n      (la_num_to_issue, la_mint_date, la_cost, la_angel_coefficient, la_status, la_product) = abi.decode(last_alm.mint_data,(uint256, string, uint256, uint256, uint256, string));\n      //payout mapping\n      _total_angels_share = (la_cost * la_num_to_issue) - 5500;// subtract estimated expenses & overhead to import, produce, and ship product\n      for(uint256 i=1; i<=Angel_List.length; i++) {\n        address payable angel = Angel_List[i];\n        uint256 angels_bal = balanceOf(angel, last_rnd_id);\n        uint256 payout_amt = _total_angels_share / (angels_bal * la_angel_coefficient);\n        map_angel_to_payout[_id][angel] = payout_amt;\n        angel.transfer(payout_amt);\n        /* has to be done in web3 */\n        // has to be on layer 2 and payouts have to accumulate to overcome transaction costs\n        // maybe angels could choose to keep their rewards in a yield pool and earn income on it until its value appreciates over gross costs\n      }\n      //Roaster Share\n      map_angel_to_payout[_id][_owner] = _total_angels_share / (la_num_to_issue * la_angel_coefficient);\n      _owner.transfer(_total_angels_share / (la_num_to_issue * la_angel_coefficient));\n      //change status on tokens to 'PAID' & reencode\n      last_alm.mint_data = abi.encode(la_num_to_issue, la_mint_date, la_cost, la_angel_coefficient, 4, la_product);\n      map_id_to_Alm[last_rnd_id] = last_alm;\n    }else{\n      //seed round\n      uint256 payout1 = ((ca_num_to_issue * ca_cost) - 5500);\n      map_angel_to_payout[_id][_owner] = payout1;\n      //one transfer for seed round, can be done on layer 1\n      // _owner.transfer(payout1);\n      last_rnd_id = _id;\n    }\n    executed = true;\n    return executed;\n  }\n\n  function change_status_s(uint256 _id) public{\n    /* fetch the current alm */\n    Alms.Alm memory alm =  map_id_to_Alm[_id];\n    require(msg.sender == alm.owner, \"Err: Must own token to change status\");\n      uint256 alm_num_to_issue;\n       string memory alm_mint_date;\n        uint256 alm_cost;\n         uint256 alm_angel_coefficient;\n          uint256 alm_status;\n           string memory alm_product;\n    (alm_num_to_issue, alm_mint_date, alm_cost, alm_angel_coefficient, alm_status, alm_product) = abi.decode(alm.mint_data,(uint256, string, uint256, uint256, uint256, string));\n    /* change status on tokens to 'executed' & reencode */\n    alm.mint_data = abi.encode(alm_num_to_issue, alm_mint_date, alm_cost, alm_angel_coefficient, 3, alm_product);\n    map_id_to_Alm[_id] = alm;\n  }\n\n}\n",
  "sourcePath": "/Volumes/TerryBytes2/2021_Kode_Tut/CafLaM_MEAN_Stack/contracts/AT_X.sol",
  "compiler": {
    "name": "solc",
    "version": "0.6.12+commit.27d51765.Emscripten.clang"
  },
  "schemaVersion": "3.4.3",
  "updatedAt": "2021-11-05T21:56:51.454Z",
  "networkType": "ethereum",
  "devdoc": {
    "kind": "dev",
    "methods": {
      "balanceOf(address,uint256)": {
        "details": "See {IERC1155-balanceOf}. Requirements: - `account` cannot be the zero address."
      },
      "balanceOfBatch(address[],uint256[])": {
        "details": "See {IERC1155-balanceOfBatch}. Requirements: - `accounts` and `ids` must have the same length."
      },
      "isApprovedForAll(address,address)": {
        "details": "See {IERC1155-isApprovedForAll}."
      },
      "owner()": {
        "details": "Returns the address of the current owner."
      },
      "renounceOwnership()": {
        "details": "Leaves the contract without owner. It will not be possible to call `onlyOwner` functions anymore. Can only be called by the current owner. NOTE: Renouncing ownership will leave the contract without an owner, thereby removing any functionality that is only available to the owner."
      },
      "safeBatchTransferFrom(address,address,uint256[],uint256[],bytes)": {
        "details": "See {IERC1155-safeBatchTransferFrom}."
      },
      "safeTransferFrom(address,address,uint256,uint256,bytes)": {
        "details": "See {IERC1155-safeTransferFrom}."
      },
      "setApprovalForAll(address,bool)": {
        "details": "See {IERC1155-setApprovalForAll}."
      },
      "supportsInterface(bytes4)": {
        "details": "See {IERC165-supportsInterface}. Time complexity O(1), guaranteed to always use less than 30 000 gas."
      },
      "transferOwnership(address)": {
        "details": "Transfers ownership of the contract to a new account (`newOwner`). Can only be called by the current owner."
      },
      "uri(uint256)": {
        "details": "See {IERC1155MetadataURI-uri}. This implementation returns the same URI for *all* token types. It relies on the token type ID substitution mechanism https://eips.ethereum.org/EIPS/eip-1155#metadata[defined in the EIP]. Clients calling this function must replace the `\\{id\\}` substring with the actual token type ID."
      }
    },
    "version": 1
  },
  "userdoc": {
    "kind": "user",
    "methods": {},
    "version": 1
  }
}